:020000040800F2
:100000002821002009020008E12D0008212D000808
:10001000DD2D0008B1260008D136000800000000E0
:10002000000000000000000000000000F92F0008A0
:100030005F29000800000000692E000889310008CF
:1000400023020008230200082302000823020008FC
:1000500023020008230200082302000823020008EC
:100060002302000823020008230200084127000899
:1000700023020008230200082302000823020008CC
:1000800023020008230200082302000823020008BC
:1000900023020008230200082302000823020008AC
:1000A000230200082302000823020008230200089C
:1000B000230200082302000823020008230200088C
:1000C000230200082302000823020008230200087C
:1000D0002302000823020008C93200085D3300082B
:1000E000230200082302000823020008230200085C
:1000F000230200082302000823020008230200084C
:10010000230200082302000823020008230200083B
:10011000230200082302000823020008230200082B
:10012000230200082302000823020008230200081B
:100130004B1C012B98BF70472DE9F003911C9B08C5
:10014000B1F80480B1F802900A8831F802CC8044FA
:10015000814402448444D9F80070D8F800601568DE
:10016000DCF80040C9F80060C8F80070CCF8005016
:100170001460D9F80470D8F804605568DCF80440BD
:10018000C9F80460C8F80470CCF804505460083111
:100190005B1ED5D1BDE8F00370474B1C012B98BF07
:1001A00070472DE9F003911C9B08B1F80480B1F869
:1001B00002900A8831F802CC00EB580800EB59098C
:1001C00000EB520200EB5C0CD9F80070D8F800602C
:1001D0001568DCF80040C9F80060C8F80070CCF879
:1001E0000050146008315B1EDFD1BDE8F00370479A
:1001F000DFF810D001F054FF004800470541000827
:10020000AFF30080282100200648804706480047B9
:10021000FEE7FEE7FEE7FEE7FEE7FEE7FEE7FEE7B6
:10022000FEE7FEE78D310008F101000870B50446D5
:100230001E4901F081FA054601F090FC14F1FF4FD0
:1002400028BF401E01F07CFC294601F072FA09210A
:1002500001F0E2FA0446B0F1884F04DB4FF0884128
:1002600001F064FA044601F092FCC0F30805284648
:1002700001F06FFC214601F05CFA04460C4850F88E
:10028000256000EB85004168204601F055FA0546DF
:1002900021464FF07E5001F049FA314601F04CFA08
:1002A0002946BDE8704001F0EFB9000083F9223E15
:1002B0001C6300082DE9F04791460D460446970857
:1002C0004FF0000866D000BF54F8046B54F8040BDC
:1002D000014601F031FA82463146084601F02CFA17
:1002E000514601F0D1F92E1D10F1FF4F28BFC5F87E
:1002F000008002D204F0E8FD286054F8045B54F852
:10030000040B014601F018FA82462946084601F01E
:1003100013FA514601F0B8F9351D10F1FF4F28BF0F
:10032000C6F8008002D204F0CFFD306054F8046BB0
:1003300054F8040B014601F0FFF9824631460846A5
:1003400001F0FAF9514601F09FF92E1D10F1FF4F0F
:1003500028BFC5F8008002D204F0B6FD286054F82A
:10036000045B54F8040B014601F0E6F98246294685
:10037000084601F0E1F9514601F086F9351D10F10A
:10038000FF4F28BFC6F8008002D204F09DFD306008
:100390007F1E99D119F0030608BFBDE8F08700BFA2
:1003A00054F8047B54F8040B014601F0C5F981466A
:1003B0003946084601F0C0F9494601F065F92F4673
:1003C0002D1D10F1FF4F28BFC7F8008002D204F0A6
:1003D0007BFD3860761EE3D1BDE8F0872DE9F34F51
:1003E0009BB00C461B98008801EB80051B994008C8
:1003F00004EB8006D1F804800590CDE90B5405EBA1
:1004000080075FEA900900F0048123680293626824
:100410001792A2681A92E268159229680E9168688C
:100420000690A8681290E868119030681890726879
:100430000792B2681692F2680392D7E900A013906F
:10044000B86810901846D7F80CB001F01DF944F8C0
:10045000040B0699179801F017F944F8040B129948
:100460001A9801F011F944F8040B1199159801F04C
:100470000BF944F8040B0E99029801F057F90E900D
:100480000699179801F052F9069012991A9801F0FE
:100490004DF912901199159801F048F911905146B3
:1004A000189801F0F1F846F8040B1399079801F039
:1004B000EBF846F8040B1099169801F0E5F846F8A9
:1004C000040B5946039801F0DFF846F8040B504638
:1004D000189901F02BF914900799139801F026F957
:1004E00013901699109801F021F91090584603992D
:1004F00001F01CF9824658F8040B019058F804BB2F
:1005000001990E9801F018F903905946069801F0E8
:1005100013F902900199069801F00EF906905946D8
:100520000E9801F009F90790DDE9021001F0ACF82E
:1005300045F8040BDDE9060101F0F8F845F8040B75
:100540005946149801F0F8F803900199139801F0B6
:10055000F3F802905946139801F0EEF806900199CD
:10056000149801F0E9F88346DDE9021001F0DEF8A5
:1005700047F8040B5946069801F086F847F8040B33
:1005800058F8040B019058F804BB0199129801F037
:10059000D3F803905946119801F0CEF802900199D2
:1005A000119801F0C9F806905946129801F0C4F864
:1005B0000790DDE9021001F067F845F8040BDDE96A
:1005C000060101F0B3F845F8040B5946109801F004
:1005D000B3F803905046019901F0AEF802905046EE
:1005E000594601F0A9F883460199109801F0A4F842
:1005F0008246DDE9021001F099F847F8040B5146F4
:10060000584601F041F847F8040BB9F101097FF4AD
:10061000FCAE1B980223059942680C9800F0F8FB89
:100620001B980599022342680B981DB0BDE8F04F56
:1006300000F0EEBB2DE9F34FA7B00F4627980088D6
:10064000400801EB800404EB800606EB8005189659
:100650001A95CDE91D412799A5F1040A0AEB8009F5
:100660004968400806900A910420199006200E91CE
:100670000D911590306801903868A4F1040BA6F133
:1006800004080090019900F0FFFF0290DDE90001ED
:1006900001F04CF803907068059078680190059916
:1006A00000F0F2FF00900599019801F03FF80190E9
:1006B000606810900146039800F0E6FF69680C91AD
:1006C00001F034F8169020680F900146019801F06F
:1006D0002DF82968059100F0D7FF11900F99029825
:1006E00001F024F8059901F021F814901099009870
:1006F00001F01CF80C9901F019F80B90109903986F
:1007000001F014F80C9900F0BFFF0C900F990198BC
:1007100000F0BAFF059901F009F812900F990298BC
:1007200000F0B2FF059900F0AFFF47F8040B6168D5
:10073000009800F0A9FF696800F0A6FF47F8040BD5
:10074000169844F8040B119844F8040B149846F8D2
:10075000040B0B9846F8040B0C9845F8040B129800
:1007600045F8040B0A9901F108000D990A9001F16E
:1007700010000E990D9001F118000E900698801E41
:100780004008209000F0C6813068019038680090E1
:10079000019900F079FF0290DDE9000100F0C6FF49
:1007A00003907068059078680190059900F06CFFDF
:1007B00000900599019800F0B9FF019060680C90D5
:1007C0000146039800F060FF6968109100F0AEFFE9
:1007D000169020680F900146019800F0A7FF296845
:1007E000059100F051FF11900F99029800F09EFFC3
:1007F000059900F09BFF14900C99009800F096FF6B
:10080000109900F093FF0B900C99039800F08EFF65
:10081000109900F039FF0C900F99019800F034FF07
:10082000059900F083FF12900F99029800F02CFFB9
:10083000059900F029FF47F8040B6168009800F063
:1008400023FF696800F020FF47F8040B5AF8040CF6
:1008500002905BF8040C0190029900F015FF0090E3
:10086000DDE9010100F062FF0190DAF80000059077
:10087000DBF800000390059900F006FF029005994F
:10088000039800F053FF10900390D9F800000590F2
:10089000D8F800001390059900F048FF22900199C4
:1008A00000F0F2FE269058F8041C1098109100F009
:1008B0003DFF59F8041C0F9100F0E6FE23901099BB
:1008C000009800F033FF0F9900F030FF2490139947
:1008D000029800F02BFF059900F028FF2190019964
:1008E000229800F023FF2290DDE90F0100F01EFFA7
:1008F000039900F01BFF17901399029800F0C4FEB3
:10090000059900F0C1FECBF80000ABF104011F9186
:1009100058F8041C009800F0B7FE59F8041C00F0C9
:10092000B3FE1F99ABF1080B08600A9800680190AC
:100930000A984168009108300A900199169800F0D1
:10094000FBFE10900099119800F0F6FE0F900199AF
:10095000119800F0F1FE03900099169800F0ECFE5B
:100960000290DDE90F1000F08FFE44F8040BDDE982
:10097000021000F0DBFE44F8040B0099239800F00D
:10098000DBFE10900199269800F0D6FE0F9000999A
:10099000269800F0D1FE03900199239800F0CCFE38
:1009A0000290DDE90F1000F0C1FEA8F10401C8F8C3
:1009B00000001C91DDE9021000F066FE1C99A8F110
:1009C000080808600D980D99006801900D9840681E
:1009D0000090199801EB80000D900199149800F097
:1009E000ABFE109000990B9800F0A6FE0F900199B5
:1009F0000B9800F0A1FE03900099149800F09CFE63
:100A00000290DDE90F1000F03FFE46F8040BDDE92F
:100A1000021000F08BFE46F8040B2198019980F03B
:100A2000004000F089FE10900099249800F084FEA8
:100A30000F900199249800F07FFE0390009921986F
:100A400000F07AFE0290DDE90F1000F06FFEAAF1CF
:100A50000401CAF800000991DDE9020100F066FE18
:100A60000999AAF1080A08600E98006801900E988A
:100A70001599406800900E9800EB81000E90019946
:100A80000C9800F059FE10900099129800F054FE56
:100A90000F900199129800F04FFE039000990C9866
:100AA00000F04AFE0290DDE90F1000F0EDFD45F880
:100AB000040BDDE9021000F039FE45F8040B009943
:100AC000179800F039FE10900199229800F034FE3A
:100AD0000F900099229800F02FFE0390019917982B
:100AE00000F02AFE0290DDE90F1000F01FFEA9F1D0
:100AF0000401C9F800001B91DDE9021000F0C4FDFB
:100B00001B99A9F1080908602098401E20907FF4E5
:100B10003BAE00BFD6F80080D7F80090414648466B
:100B200000F0B2FD02904146484600F0FFFD039000
:100B3000D6F80490D7F804804946404600F0A4FD5A
:100B400000904946404600F0F1FD019060680F902A
:100B50000146039800F098FDD5F80490494600F04E
:100B6000E5FD8346206809900146019800F0DEFD0E
:100B70002968059100F088FD82460999029800F0E5
:100B8000D5FD059900F0D2FD80460F99009800F040
:100B9000CDFD494600F0CAFD0B900F99039800F077
:100BA000C5FD494600F070FD0C900999019800F0D0
:100BB0006BFD059900F0BAFD81460999029800F095
:100BC00063FD059900F060FD38606168009800F0F1
:100BD0005BFD696800F058FD78600A98D0E9007004
:100BE00000905846394600F0A7FD109050460099F5
:100BF00000F0A2FD0F905046394600F09DFD0746DB
:100C00005846009900F098FD8246DDE90F1000F08B
:100C10003BFD20605146384600F088FD60600D982D
:100C2000D0E900474046214600F086FD834639461C
:100C30000B9800F081FD824621460B9800F07CFD68
:100C400004464046394600F077FD0746514658466F
:100C500000F01AFD30603946204600F067FD7060F4
:100C60000E98D0E9004621460C9800F065FD8046BC
:100C70004846314600F060FD07464846214600F0F0
:100C80005BFD044631460C9800F056FD0646394699
:100C9000404600F0F9FC28603146204600F046FD51
:100CA000686027980423069942681E9800F0B0F8FF
:100CB00027980423069942681D9800F0A9F8279800
:100CC000042306994268189800F0A2F8279806991C
:100CD000042342681A9829B0BDE8F04F00F098B894
:100CE0002DE9F0410588984617460C460646012A2C
:100CF00018D1201DB5B1083815F0010F04D050F8F7
:100D0000081F81F00041016069080BD050F8082FDE
:100D1000491E82F0004240F8082B026882F000422F
:100D20000260F3D1B5F5807F1BD008DC102D13D005
:100D3000202D16D0402D19D0802D0DD01CE0B5F5FA
:100D4000007F13D0B5F5806F06D0B5F5006F08D0E1
:100D5000B5F5805F0AD00FE021463046FFF73EFB35
:100D60000AE021463046FFF765FC05E029460123ED
:100D70002046726800F04CF8B8F1000F04D0B18939
:100D80002046B268FFF7D4F9012F18BFBDE8F08103
:100D9000284600F0DEFE01464FF07E5000F0FEFCDB
:100DA0000646002D08BFBDE8F081083C15F0010F94
:100DB0000CD03146A06800F0BFFCA060E06831466E
:100DC00080F0004000F0B8FCE06008346D0808BF17
:100DD000BDE8F0813146A06800F0AEFCA060E0689C
:100DE000314680F0004000F0A7FCE0603146206909
:100DF00000F0A2FC20616069314680F0004000F004
:100E00009BFC606110346D1EE4D1BDE8F0810000F0
:100E10002DE9FF4FB3B00446349D2895ED08002618
:100E200006EB050A0AEB050909EB050808EB050BBB
:100E30000BEB05004719229078192A9054F83B00D3
:100E4000039054F836000290039900F01DFC0090C6
:100E5000DDE9020100F06AFC0990229854F83000A4
:100E6000039054F83A000290039900F00DFC0590AD
:100E7000DDE9020100F05AFC089054F837000390B5
:100E800054F839000290039900F0FEFB1590DDE95B
:100E9000020100F04BFC14902A9854F830000490A2
:100EA00054F838000390049900F0EEFB0290DDE95D
:100EB000030100F03BFC13901599009800F036FCFC
:100EC00004901599009800F0DFFB009002990598B6
:100ED00000F02CFC15900299059800F0D5FB014616
:100EE0000590009800F0D0FB44F836000599009872
:100EF00000F01CFC44F83B0004EBCB000D90406874
:100F000004EBC60B0390DBF804000290039900F099
:100F1000BBFB0090DDE9020100F008FC069022987E
:100F200004EBC00016904068039004EBCA000E90DA
:100F300040680290039900F0A7FB0590DDE90201EB
:100F400000F0F4FB079004EBC7001A904068039090
:100F500004EBC900199040680290039900F094FBDB
:100F60001090DDE9020100F0E1FB0F902A9804EBFC
:100F7000C00018904068039004EBC80017904068C8
:100F80000B90039900F080FB029003990B9800F0FE
:100F9000CDFB12901099009800F0C8FB03901099B7
:100FA000009800F071FB00900299059800F0BEFBDC
:100FB00010900299059800F067FB01460590009893
:100FC00000F062FBCBF804000599009800F0AEFB3E
:100FD00001460D9841601099049800F055FB44F8C3
:100FE00039001099049800F0A1FB44F837001599D6
:100FF000039800F09BFB01461998416015990398EE
:1010000000F042FB01461A9841601399089800F0DD
:101010008DFBFE4F394600F08FFB814613990898EF
:1010200000F032FB394600F087FB089012990798D0
:1010300000F07CFB394600F07FFB8346129907984D
:1010400000F022FB394600F077FB079049460998EB
:1010500000F06CFB04904946099800F015FB0990DC
:101060000899149800F062FB13900899149800F006
:101070000BFB14905946069800F058FB0390594614
:10108000069800F001FB069007990F9800F04EFBC0
:10109000814607990F9800F0F7FA834601460998B0
:1010A00000F0F2FA44F83A005946099800F03EFB85
:1010B00001462A9844F830104946049800F0E4FAB2
:1010C0000146229844F830104946049800F02EFB5F
:1010D00044F838001499069800F028FB01460E9851
:1010E00041601499069800F0CFFA014618984160C3
:1010F0001399039800F01AFB014616984160139962
:10110000039800F0C1FA01461798416028980644F8
:1011100034988642FFF484AE082D3CBF37B0BDE85A
:10112000F08F00201D9001201B9036991D98359F4F
:1011300008441D90DDF874804200161857F8387086
:101140000E97359F810001EB000C57F832700C9719
:10115000359F0CEB0003184457F836702097359FE5
:1011600057F831701997359F57F83C700B97359F9A
:1011700057F833702597359F57F830702997359F6A
:1011800007EBC8077F681797359F07EBC20207EB8D
:10119000C10152681A9207EBC60207EBC000526801
:1011A0001E924968189107EBCC011B9E4968279154
:1011B00007EBC3014968239140681C90771907EB3E
:1011C000050808EB050909EB050A0AEB050B0BEB13
:1011D0000500219028442A9054F83A00039054F8CE
:1011E00036000290039900F04FFA0090DDE9020109
:1011F00000F09CFA099054F83B00039054F8370033
:101200000290039900F040FA0590DDE9020100F038
:101210008DFA0890219854F83000039054F8380063
:101220000290039900F030FA1590DDE9020100F018
:101230007DFA14902A9854F83000049054F839003C
:101240000390049900F020FA0290DDE9030100F018
:101250006DFA13901599009800F068FA04901599AA
:10126000009800F011FA00900299059800F05EFADB
:1012700015900299059800F007FA0146059000982C
:1012800000F002FA44F836000599009800F04EFA92
:10129000059004EBCA002B904068039004EBC60055
:1012A000169040680090039900F0EEF902900399BF
:1012B000009800F03BFA069004EBCB002D904068BC
:1012C000039004EBC7002C9040680090039900F055
:1012D000DBF90D900399009800F028FA0790219807
:1012E00004EBC0002F904068039004EBC8002E90E0
:1012F00040680090039900F0C7F910900399009896
:1013000000F014FA0F902A9804EBC0003090406867
:10131000129004EBC900319040680390129900F0DC
:10132000B3F900901299039800F000FA1290109906
:10133000029800F0FBF903901099029800F0A4F9CC
:10134000029000990D9800F0F1F9109000990D9815
:1013500000F09AF90D901099049800F095F900901A
:101360001099049800F0E2F904900D99029800F0A9
:101370008BF90146169841600D99029800F0D6F954
:101380000D901599039800F0D1F9029015990398E2
:1013900000F07AF903900599199800F0CDF91690AC
:1013A0000D99189800F0C8F915900D99199800F04A
:1013B000C3F90D900599189800F0BEF90590DDE984
:1013C000151000F061F944F83A0005990D9800F005
:1013D000ADF901462B98416000990C9800F0ACF9EA
:1013E000169002991A9800F0A7F9824602990C9873
:1013F00000F0A2F90D9000991A9800F09DF905905F
:101400005146169800F040F902E00000F304353F21
:1014100044F8380005990D9800F088F901462E9897
:1014200041600499259800F087F982460399239832
:1014300000F082F980460399259800F07DF90D901F
:101440000499239800F078F905904146504600F041
:101450001BF90146219844F8301005990D9800F0C9
:1014600065F901462F9841601399089800F05EF9DC
:10147000844900F061F980461399089800F004F956
:10148000804900F059F982461299079800F04EF908
:101490007C4900F051F902901299079800F0F4F895
:1014A000784900F049F907904146099800F03EF963
:1014B00004904146099800F0E7F8099051461498C5
:1014C00000F034F913905146149800F0DDF81490B0
:1014D0000299069800F02AF903900299069800F004
:1014E000D3F8069007990F9800F020F982460799E3
:1014F0000F9800F0C9F880460146099800F0C4F83A
:1015000000904146099800F011F90990514604985D
:1015100000F0BAF808905146049800F007F90490DA
:101520001499069800F002F980461499069800F084
:10153000ABF806901399039800F0F8F80790139908
:10154000039800F0A1F8039000990E9800F0F4F8C9
:1015500016904146179800F0EFF8824641460E98E3
:1015600000F0EAF80D900099179800F0E5F8804631
:101570005146169800F088F844F8370041460D9817
:1015800000F0D4F801462C9841600999299800F0A0
:10159000D3F8824606991C9800F0CEF8804606994A
:1015A000299800F0C9F80D9009991C9800F0C4F82A
:1015B00007464146504600F067F801462A9844F82D
:1015C000301039460D9800F0B1F80146309841606E
:1015D00008990B9800F0B0F880460799279800F01A
:1015E000ABF8824607990B9800F0A6F80D90089981
:1015F000279800F0A1F807465146404600F044F80D
:1016000044F83B0039460D9800F090F801462D98BB
:1016100041600499209800F08FF8834603991E9842
:1016200000F08AF882460399209800F085F88046F9
:1016300004991E9800F080F807465146584600F07D
:1016400023F844F839003946404600F06FF8014667
:10165000319841602898064434988642FFF4AEAD34
:101660001B98401C1B9085423FF65FAD36984FF6A5
:10167000FF7101EAC0003690072D3FF6CEAB37B0C0
:10168000BDE8F08FF304353FF0B480EA0102D40FD7
:101690004200B2EB410F02D20246084611464A0010
:1016A00042D0C30DDDB2C1F3C752AD1A202D35DAD9
:1016B000C1F3160141F4000204B15242C5F1200603
:1016C00002FA06F12A411044B3EBD05F23D0C4B133
:1016D000012DA0EBC35009DCF0BC4FF0004202EA40
:1016E000C352DBB200F5000000F043BB400000F144
:1016F000807000EBC350A0F1807040EAD1704900C7
:1017000009E0490841EAC071A0EBC35000F50000B0
:10171000400800EBC350F0BC00F022BB6142012244
:1017200002EB4101001BF6E7F0BC704781F000417D
:10173000AAE780F00040A7E780EA010210B502F0B6
:101740000043400022D04A001FD0010E01EB12617D
:10175000C0F35600C2F3560240F4000042F4000207
:10176000A0FB022000047F39140400D0401C50EA82
:10177000124001D44000491EC2B20C0604EBD01046
:10178000401C4008802A02D003E0002010BD20F059
:101790000100002900DA0020184310BD30B480EAAF
:1017A000010202F0004530F0004221F0004013D069
:1017B00090B1C30DD40DC2F31601C0F31600E41AA4
:1017C00041F4000140F400027D34914201D3641CD5
:1017D00000E04900002C02DA30BC002070474FF4D2
:1017E00000000023914201D3891A034340084FEAC5
:1017F0004101F7D151B1914202D14FF0004105E0D2
:1018000002D24FF0010101E06FF0010103EBC4507F
:10181000284430BC00F0A4BA420005D0C0F3C7523F
:101820005242914201DC0020704700EBC1507047EA
:101830002DE9FE4F804681EA0300C00F0C46009060
:1018400021F0004123F00045B8EB0200A94105D288
:101850004046214690461C460B46024623F0004077
:10186000104347D0270DC7F30A00C3F30A51029073
:10187000401A019040286BDAC3F3130040F4801B38
:101880000098924620B10023D2EB030A63EB0B0BC6
:1018900001985946C0F14002504600F030FA064621
:1018A0000D4650465946019A00F048FA10EB0800E0
:1018B0006141002487EA115284EAE7731A4340D059
:1018C000009A62B3019A012A4FEA075215DC001B05
:1018D00061EB02014FF0004202EA0752CDE90042FB
:1018E000001C41F5801132462B4600F0AEFA03B0E1
:1018F000BDE8F08F40462146F9E7001B61EB02018D
:10190000001C41F5801300185B412018A2F5001758
:1019100047EB030140EAD570B6196D4111E06D083F
:101920004FEA360645EAC0754FEA0752001B61EBE5
:101930000201001C41F5801149084FEA30000019EE
:10194000514132462B4603B0BDE8F04F00F06EBA6D
:101950000098012240000023D0EB020263EBE07309
:10196000009821464FEAE074B8EB000061EB0401F7
:10197000E9E783F000435BE781F0004158E72DE998
:10198000FE4F81EA030404F0004421F0004100947A
:101990004FF0000B23F0004350EA01045ED052EAFE
:1019A00003045BD0C3F30A54C1F30A552C44A4F2D8
:1019B000F3340194A0FB0254C1F3130141F48011EC
:1019C000C3F3130343F4801301FB024400FB034EF3
:1019D000840A970A44EA815447EA8357A4FB0768BC
:1019E00002958D0A05FB07854FEA932C04FB0C54E6
:1019F0002705029D4FEA065847EA1637B5EB08055A
:101A00006EEB070C870E920E47EA811742EA8312AB
:101A1000A7FB0201B6EB0B0164EB00042B0D43EABC
:101A20000C335E1844EB1C50DA465146E7FB0201CA
:101A3000C5F313044FEA0B3343EA14534FEA04325D
:101A4000019C43EA0603A4F10C040294009CCDE936
:101A500000B400F0FAF903B0BDE8F08F00200146B1
:101A6000F9E72DE9F04D81EA030404F0004B21F081
:101A7000004514464FF0000A23F0004150EA0502E9
:101A800020D054EA01021DD0C5F30A570246C5F31F
:101A90001303C1F31300C1F30A5640F4801543F455
:101AA0008013A7EB0608101BD64608F2FD3873EB2F
:101AB000050002D308F1010801E092185B41B8F17A
:101AC000000F03DA00200146BDE8F08D00204FF43E
:101AD0008011064684460EE0171B73EB050705D3FD
:101AE000121B63EB050306434CEA010C49084FEA5D
:101AF000300092185B4150EA0107EDD152EA030031
:101B000012D082EA040083EA0501084305D0101BC5
:101B1000AB4106D20122002306E000224FF0004331
:101B200002E06FF0010253101AEB06004CEB085173
:101B300010EB0A0041EB0B01BDE8F04D00F076B967
:101B4000C10F80EAE0700844CA079623002100F024
:101B500010B996230022114600F00BB900F00042A4
:101B600020F00040C10DC0F3160040F400007F29B2
:101B700001DA00207047962903DCC1F19601C840C4
:101B800001E096398840002AF4D04042704720F0A6
:101B90000040C10DC0F3160040F400007F2901DAB7
:101BA00000207047962903DCC1F19601C8407047B8
:101BB000963988407047C1F30A5210B5C1F313013A
:101BC00040F2FF3341F480119A4201DA002010BD47
:101BD00040F233439A42A2F2334203DC524200F015
:101BE0009DF810BD904010BD00F0004230F0004064
:101BF0000AD0C10D01F56071C0F3160042EA01512F
:101C0000C20840071143704700200146704701F0A9
:101C1000004330B421F0004150EA010206D00A0D21
:101C2000A2F56072C1F31301002A02DC30BC00206F
:101C30007047440F44EAC104C100E01830BC00EB17
:101C4000C25000F08DB80000002801DBC0F1004058
:101C5000002901DBC1F1004181427047002801DB0E
:101C6000C0F10040002901DBC1F10041884270470A
:101C700030B50B46014600202022012409E021FA5C
:101C800002F59D4205D303FA02F5491B04FA02F559
:101C90002844151EA2F10102F1DC30BD2DE9F05FF0
:101CA0000546002092469B468846064681464024CB
:101CB0001BE0284641464746224600F02FF853468F
:101CC0005A46C01A914110D311461846224600F0D8
:101CD00016F82D1A67EB01084F4622460120002115
:101CE00000F00DF817EB00094E41201EA4F101048D
:101CF000DFDC484631462A464346BDE8F09F202AAD
:101D000004DB203A00FA02F1002070479140C2F152
:101D1000200320FA03F3194390407047202A04DB84
:101D2000203A21FA02F00021704721FA02F3D04054
:101D3000C2F120029140084319467047202A06DB71
:101D4000CB17203A41FA02F043EAE07306E041FA89
:101D500002F3D040C2F12002914008431946704777
:101D60000029A8BF7047401C490008BF20F00100AF
:101D7000704710B4B0FA80FC00FA0CF050EA01048D
:101D800004BF10BC704749B1CCF1200421FA04F41F
:101D900011FA0CF118BF012121430843A3EB0C01F8
:101DA000CB1D4FEA00614FEA102042BF002010BC5B
:101DB000704700EBC35010440029A4BF10BC70470B
:101DC000401C490008BF20F0010010BC7047F0B46F
:101DD000002802DCF0BC00207047C0F3C751C0F3FC
:101DE000160040F40000CA0701D14000491E3F22FE
:101DF00002EB6105002211464FF4000626FA01F3BA
:101E00001344D418844201D8001B1A464000491CD0
:101E10001729F3DD5100814202D24FF0FF3100E07B
:101E2000002102EBC550F0BCFFF79ABF10B5141E9D
:101E300073F1000408DA401C41F1000192185B4183
:101E40001A4301D120F0010010BD2DE9F04D92465A
:101E50009B4611B1B1FA81F202E0B0FA80F2203271
:101E60009046FFF74CFF04460F4640EA0A0041EA5D
:101E70000B0153465A46084313D0114653EA01005A
:101E800019D0C8F140025046FFF748FF05460E46FC
:101E9000504659464246FFF732FF084305D001201D
:101EA00004E020463946BDE8F08D0020054346EAAF
:101EB000E0762C4337430A986305E40AA0EB080058
:101EC0000022FD0A44EA47540A3002D500200146A8
:101ED000E9E7010510196941DDE908450019694183
:101EE000BDE8F04DA2E72DE9F04D00231A461B1A7C
:101EF0008A4103DB00200146BDE8F08DC1F30A52A0
:101F0000C1F3130141F480154FF0000BD10702D14A
:101F100000186D41521E0027044640F2FF1138465A
:101F200001EB620A3E468046024600204FF48011D3
:101F3000FFF7F4FEC2197141BB1846EB0100B4EB88
:101F4000030C75EB000C04D3E41A65EB000517468F
:101F50000E46241908F101006D4180463428E3DD66
:101F6000F91946EB0600091BA84103D24FF0FF32D6
:101F7000134601E0002213461BEB070046EB0A5113
:101F8000BDE8F04DFFF752BF2DE9F041054621F0C5
:101F900000400C46284309D0C4F30A5040F23341B4
:101FA000884205DD28462146BDE8F0812846FBE74A
:101FB00040F2FE31884210DC0CDB4FEA043040EA8C
:101FC000155050EA053105D0104804F00041014396
:101FD0000020E9E700200146E6E7A0F23340464250
:101FE000C6F1400228462146FFF789FE074688468B
:101FF000284621463246FFF791FE43463A46FFF710
:1020000015FF3246BDE8F041FFF779BE0000F03F12
:10201000C1F30A52C1F3130140F2FF3341F48011BE
:102020009A4202DA00200146704740F233439A4256
:10203000A2F2334202DC5242FFF770BEFFF75FBEEE
:1020400030B5041E71F1000404DB4FF0004440423F
:1020500064EB0101141E73F1000405DB1C464FF014
:102060000043524263EB04038B4208BF824230BDFF
:1020700030B5041E71F1000404DB4FF0004440420F
:1020800064EB0101141E73F1000405DB1C464FF0E4
:102090000043524263EB0403994208BF904230BDB3
:1020A000064C074D06E0E06840F0010394E80700A5
:1020B00098471034AC42F6D3FEF79EF8206B000828
:1020C000406B000870B58D1810F8014B14F0030236
:1020D00001D110F8012B231106D110F8013B03E0C8
:1020E00010F8016B01F8016B521EF9D1ABB110F879
:1020F000012B04F00C048A1A0C2C03D0A2EB8412DE
:102100009B1C08E010F8014BA2EB0422F8E712F840
:10211000014B01F8014B5B1EF9D5A942D4D3002035
:1021200070BD00002DE9FC5F834600215846FFF793
:102130008BFD01D8BDE8FC9F2348019059462348F8
:10214000FFF72CFB0090FFF74FFD074602F04CFE17
:102150000546FFF730FD814600242FE0601C48450E
:1021600000D9E7E7601CB9FBF0F5B5F5803F00D971
:1021700022E0601C00FB05F64E451CD1681E1FFACC
:1021800080FA0021124801F031F85146104801F060
:1021900045F8012221460E4801F034F8601C0AF18E
:1021A000010148430849B1FBF0F73846FFF7D1FC7D
:1021B00008490860BEE700BF601C84B24FF6FF709C
:1021C0008442CBDB00BFB5E700A24A044054894CEF
:1021D000000400401800002021B1826842F0010292
:1021E000826003E0826822F001028260704721B1C0
:1021F000826842F48072826003E0826822F4807216
:102200008260704710B504461248844208D101210B
:10221000401500F077FE0021601500F073FE17E016
:102220000D48844208D10121001500F06BFE002109
:10223000201500F067FE0BE00848844208D1012118
:10224000C80300F05FFE00214FF4004000F05AFE8A
:1022500010BD00000024014000280140003C014066
:1022600021B1826842F48012826003E0826822F425
:10227000801282607047000008B50121102000F034
:1022800031FE0120ADF8000000208DF8030003208E
:102290008DF802006946024800F052FC08BD0000BB
:1022A00000100140014600208A6802F004020AB1D1
:1022B000012000E000207047014600208A6802F0FB
:1022C00008020AB1012000E00020704730B5024644
:1022D0000020002350680F4C20400D790C6844EA20
:1022E00005242043506090680B4C2040D1E90254F3
:1022F0002C434D7944EA450420439060D06A20F491
:1023000070000C7C641EE4B2234340EA0350D062A8
:1023100030BD0000FFFEF0FFFDF7F1FFF0B5044611
:102320000D4600200021092D11DDE068A5F10A0607
:1023300006EB4607072606FA07F18843A5F10A06C9
:1023400006EB460603FA06F10843E0600CE020695C
:1023500005EB4507072606FA07F1884305EB450616
:1023600003FA06F108432061072A0FDA606B561E54
:1023700006EB86071F2606FA07F18843561E06EB72
:10238000860605FA06F10843606322E00D2A0FDA9B
:10239000206BD61F06EB86071F2606FA07F1884337
:1023A000D61F06EB860605FA06F10843206310E007
:1023B000E06AA2F10D0606EB86071F2606FA07F172
:1023C0008843A2F10D0606EB860605FA06F10843DE
:1023D000E062F0BD816841F0080181607047000053
:1023E00010B54FF480710F4800F0B7FA00210E4885
:1023F00000F016FF022000F0B3F9042000F0B0F95D
:1024000001210A48FFF7E8FE01210848FFF7EFFE27
:102410000121044800F0B2F90121034800F0E6FE72
:1024200010BD0000080002400004004000240140EC
:10243000816841F0040181607047000010B50021FF
:10244000094800F0D3FE0021074800F0E9FE002112
:10245000064800F093F900210548FFF7C8FE002167
:102460000348FFF7B9FE10BD000400400800024019
:10247000002401400EB50121022000F013FD4FF4AD
:102480008C70ADF804000020ADF80000ADF8060037
:10249000ADF802006946044800F0C4FE202102485D
:1024A00000F0B3FE0EBD00000004004000B591B086
:1024B000FFF7E2FEFFF7DEFF0121084600F0E2FC35
:1024C000454800F067F945480690454807900020C8
:1024D00008904FF48070099000200A9080200B90A3
:1024E00040000C9080000D9000200E904FF40050A2
:1024F0000F900020109006A9374800F010FA0B202A
:102500008DF8140002208DF8150001208DF81600BA
:102510008DF8170005A800F065FC022000F020F9F6
:10252000012202212C4800F0F1F9002204212A485E
:1025300000F0ECF90121480200F0D4FC4FF4004017
:1025400000F094FC25484C38FFF75CFE002000901A
:102550008DF804008DF805004FF400200290002053
:10256000039001208DF8100069461C484C38FFF795
:10257000ADFE022301220A2118484C38FFF7CEFE97
:10258000012116484C38FFF727FE14484C38FFF756
:1025900021FF00BF11484C38FFF78EFE0028F9D10B
:1025A0000E484C38FFF744FF00BF0C484C38FFF78B
:1025B00079FE0028F9D1012108484C38FFF750FE78
:1025C000012106484C38FFF712FE0121024800F0B5
:1025D000D5F811B000BD0000080002404C240140B5
:1025E0009806002010B586B004460121082000F0AE
:1025F00079FC0121880400F055FC4FF48060ADF8AF
:10260000140003208DF8160018208DF8170005A976
:10261000244800F095FA4FF40060ADF8140004204F
:102620008DF8170005A91F4800F08AFA27208DF8B9
:10263000000003208DF801008DF8020001208DF8C4
:102640000300684600F0CEFB174800F005FF01A824
:1026500001F032F801940020ADF80800ADF80A004E
:10266000ADF80C00ADF810000C20ADF80E0001A97B
:102670000E4800F09BFF60210C4800F0C9FE0122CB
:1026800040F22551094800F06CFF002240F226611B
:10269000064800F066FF0121044800F0D1FE06B0B4
:1026A00010BD0000000C014000380140004800400F
:1026B00000BFFEE72DE9F05F05460C462046FFF718
:1026C00048FA07464FF087412846FFF735F880461D
:1026D0003946FFF763F8064616493046FFF7B4FA65
:1026E00007D83046FFF71EFD1348006813490860FD
:1026F0001DE04FF4007090FBF4F000F1010A504629
:10270000FFF71EFA80464FF4807090FBF4FB5846AA
:10271000FFF716FA82462946FFF70EF88146414632
:10272000FFF73CF80746FFF7FDFC04480660BDE8EC
:10273000F09F00000050C348180000201C0000203B
:1027400010B5022000F0CCF838B1FFF777FE012079
:1027500002490870022000F003F810BD14000020A8
:1027600000F0805111B10349086001E0024948605E
:1027700070470000040402400000024021B10268DA
:1027800042F00102026004E002684FF6FE731A4054
:102790000260704701684FF6FE721140016000212F
:1027A000016041608160C1604B49884208D14A495B
:1027B0000839496841F00F01474A083A51608AE0F8
:1027C00045491431884208D143490839496841F0E4
:1027D000F001414A083A51607DE03F492831884282
:1027E00008D13D490839496841F470613A4A083ACC
:1027F000516070E038493C31884208D13649083987
:10280000496841F47041344A083A516063E0324902
:102810005031884208D130490839496841F4702163
:102820002D4A083A516056E02B496431884208D15C
:1028300029490839496841F47001274A083A51602A
:1028400049E025497831884208D123490839496847
:1028500041F07061204A083A51603CE01F498842CB
:1028600006D1011F096841F00F01021F116032E01B
:102870001A491431884208D11849091F096841F0E2
:10288000F001164A121F116025E0144928318842D0
:1028900008D11249091F096841F470610F4A121FDB
:1028A000116018E00D493C31884208D10B49091FDD
:1028B000096841F47041094A121F11600BE0074991
:1028C0005031884207D10549091F096841F4702138
:1028D000024A121F116070470800024008040240BB
:1028E00001460020002201F0805313B1054B1A6805
:1028F00001E0054B1A6802EA01030BB1012000E078
:102900000020704700040240000002401AB1036832
:102910000B43036002E003688B430360704710B50C
:102920000022026847F6F0739A430C6A8B682343CF
:102930000C6923434C6923438C692343CC692343AB
:102940004C6A23438C6A23431A430260CB6843607A
:102950000B6883604B68C36010BD4160704770476F
:1029600000B5034603E04FF47A7000F005F8181E36
:10297000A3F10103F7D100BD00EBC001C9004FF086
:10298000E0225161002191610521116100BF4FF0EA
:10299000E021096901F480310029F8D004214FF0C9
:1029A000E0221161704700002DE9F041002600246B
:1029B00005E05A4830F914000644601C84B2FF2C2C
:1029C000F7DD3046FFF7C5F807464FF08741FEF7C1
:1029D000E5FE054652480078002842D0514800786C
:1029E000F8B900241AE04D4931F91400FFF7A8F8AE
:1029F00080462946FEF79AFE07464B4850F82410B9
:102A00003846FEF799FE6100484A42F8210000214D
:102A10006000401C42F82010601C84B2FF2CE2DDF4
:102A200066E000241AE03D4931F91400FFF788F808
:102A300080462946FEF77AFE07463D4850F82410A6
:102A40003846FEF779FE6100384A42F8210000213D
:102A50006000401C42F82010601C84B2FF2CE2DDB4
:102A600046E034480078002842D02E4800780328F9
:102A70001FDC00241AE0294931F91400FFF760F83F
:102A800080462946FEF752FE0746274850F8241094
:102A90003846FEF751FE6100244A42F82100002129
:102AA0006000401C42F82010601C84B2FF2CE2DD64
:102AB0001EE000241AE0194931F91400FFF740F82C
:102AC00080462946FEF732FE0746174850F8241084
:102AD0003846FEF731FE6100144A42F82100002119
:102AE0006000401C42F82010601C84B2FF2CE2DD24
:102AF000012300220D491048FEF7F2F84FF48072CE
:102B00000E490A48FDF7D6FB0C4908684FF0804192
:102B1000FEF744FE09490860BDE8F08198060020F0
:102B200083060020800600209C4F00082809002012
:102B30009C530008840600209C5700082819002098
:102B40002DE9F04102460025002600200023002444
:102B5000002791F803C00CF00F0591F803C00CF0AA
:102B6000100CBCF1000F03D091F802C04CEA05052F
:102B700091F800C0BCF1000F31D0146800202BE0A8
:102B80004FF0010C0CFA00F3B1F800C00CEA030698
:102B90009E4220D183004FF00F0C0CFA03F7BC4388
:102BA00005FA03FC4CEA040491F803C0BCF1280FB9
:102BB00006D14FF0010C0CFA00FCC2F814C00AE078
:102BC00091F803C0BCF1480F05D14FF0010C0CFA8D
:102BD00000FCC2F810C0401C0828D1D31460B1F822
:102BE00000C0BCF1FF0F34DD546800202EE000F17E
:102BF000080C4FF0010808FA0CF3B1F800C00CEA19
:102C000003069E4221D183004FF00F0C0CFA03F70C
:102C1000BC4305FA03FC4CEA040491F803C0BCF180
:102C2000280F05D100F1080C08FA0CF8C2F814803E
:102C300091F803C0BCF1480F07D100F1080C4FF028
:102C4000010808FA0CF8C2F81080401C0828CED3FE
:102C50005460BDE8F08100002DE9F04100201F49DB
:102C6000087000241CE01E4951F82400FEF7BCFF48
:102C700005460B461B48015D2A461BA000F0C8FD17
:102C80001E4951F82400FEF7AFFF05460B46154AD2
:102C9000601D115C2A4614A000F0BAFD601CC4B28D
:102CA000052CE0DB16480068FEF79EFF05462A4625
:102CB0000B460A210CA000F0ABFD12491248006837
:102CC000FEF73AFD0746FEF78FFF05462A460B46FC
:102CD0000B210EA000F09CFDBDE8F08182060020D3
:102CE000C0080020280000207425642E7478743DEC
:102CF00022252E326622FFFFFF000000AC080020D4
:102D0000880600200000C8428C0600207425642E2E
:102D10007478743D22252E3266252522FFFFFF00A0
:102D200000BFFEE72DE9F0412420244908702B2044
:102D300081F83100224923480068FEF7FDFC054672
:102D4000FEF70CFF1D49C1F801001D491E4800682F
:102D5000FEF7F2FC0546FEF701FF1849C1F8050031
:102D6000002426E0194951F824001549FEF7E4FC37
:102D70000546FEF7F3FE1149093101EB84010860B5
:102D8000134951F824001349FEF708FD074612497C
:102D9000FEF7D2FC06460A49FEF7CEFC0546FEF7D2
:102DA000DDFE06490931621D01EB82010860601CED
:102DB000C4B2052CD6DBBDE8F0810000F408002089
:102DC00000401C46880600208C060020C008002019
:102DD000AC080020DA0F49400000344300BFFEE792
:102DE0007047000070B5002100230F22C47804B39F
:102DF000154C246804F4E064C4F5E064210AC1F1D0
:102E00000403CA40447804FA03F18478144021434F
:102E100009010E4C0678A155047804F01F05012421
:102E2000AC4005786D11AD0005F1E025C5F8004115
:102E300009E0047804F01F050124AC40044D067835
:102E4000761145F8264070BD0CED00E000E400E08E
:102E500080E100E002490143024A1160704700002E
:102E60000000FA050CED00E070470000014600206C
:102E7000034A506820F44040084350607047000007
:102E80000010024029B1064A52690243044B5A61BC
:102E900004E0034A52698243014B5A6170470000C3
:102EA0000010024029B1064AD2690243044BDA619C
:102EB00004E0034AD2698243014BDA6170470000A3
:102EC0000010024029B1064A12690243044B1A61FC
:102ED00004E0034A12698243014B1A617047000003
:102EE0000010024029B1064A92690243044B9A61DC
:102EF00004E0034A92698243014B9A6170470000E3
:102F00000010024029B1064AD2680243044BDA603D
:102F100004E0034AD2688243014BDA607047000044
:102F20000010024030B500210022002400232D4D66
:102F30006D6805F00C0121B1042905D0082923D1C1
:102F400005E0294D056022E0274D05601FE0254D75
:102F50006D6805F47012234D6D6805F48034022508
:102F600005EB92421CB9214D554305600BE01D4D08
:102F70006D6805F400351DB11C4D5543056002E038
:102F8000194D5543056002E0174D056000BF00BFB5
:102F9000144D6D6805F0F0010909154D6B5C05686D
:102FA000DD4045600F4D6D6805F4E061090A104D84
:102FB0006B5C4568DD4085600A4D6D6805F46051C5
:102FC000C90A0B4D6B5C4568DD40C560054D6D68F9
:102FD00005F44041890B074D6B5CC568B5FBF3F503
:102FE000056130BD0010024000127A0000093D006A
:102FF000000000201000002070472DE9F047054632
:103000000F4690461E4601203080D5F804900124DA
:103010000AE055F824004946FEF720FE02D255F892
:1030200024903480601CC4B2BC42F2DBC8F800902B
:10303000BDE8F0872DE9F0470646884615461F464D
:10304000DDE9089AA9F8005056F8250038600A2DE5
:1030500014DDE81EC4B20CE056F824003968FEF70F
:10306000FDFD04D256F824003860A9F80040601C29
:10307000C4B2E81C844201DC4445EDDBBDE8F087C6
:1030800070B50546012005490870002403E0285D5D
:1030900000F0AEF9641C322CF9D370BD820600201A
:1030A00010B500F001F810BD0CB5002001900090A3
:1030B0003348006840F480303149086000BF304830
:1030C000006800F4003000900198401C01900098C6
:1030D00018B90198B0F5A06FF1D12948006800F443
:1030E000003010B10120009001E000200090009815
:1030F000012843D12348006840F0100021490860AE
:103100000846006820F0030008600846006840F0A8
:10311000020008601A48406819494860084640683B
:1031200048600846406840F480604860084640684F
:1031300020F47C1048600846406840F4E81048607D
:103140000846006840F08070086000BF0C480068C6
:1031500000F000700028F9D00948406820F0030012
:10316000074948600846406840F00200486000BFD8
:103170000348406800F00C000828F9D10CBD00009D
:1031800000100240002002407047000010B51348B4
:10319000006840F001001149086008464068104985
:1031A00008400E494860084600680E4908400B492F
:1031B00008600846006820F48020086008464068DF
:1031C00020F4FE0048604FF41F008860FFF768FF9E
:1031D0004FF000600449086010BD0000001002407C
:1031E0000000FFF8FFFFF6FE08ED00E021B10288C5
:1031F00042F00102028004E002884FF6FE731A409A
:103200000280704701858282704782884FF68F73F3
:103210001A40828082880A43828070478185704785
:1032200081847047002202881D4B98420ED01D4BAE
:1032300098420BD0B0F1804F08D01B4B984205D07C
:103240001A4B984202D01A4B984204D14FF68F7312
:103250001A404B881A43174B984207D0164B984296
:1032600004D04FF6FF431A40CB881A4302808B8864
:1032700083850B8803850A4B98420BD0094B9842F3
:1032800008D00E4B984205D00D4B984202D00D4B02
:10329000984201D10B7A0386012383827047000094
:1032A000002C0140003401400004004000080040B0
:1032B000000C00400010004000140040004001409D
:1032C000004401400048014010B540F225511F481C
:1032D00000F01DF9002837D01C4800F0D3F9C4B223
:1032E0001B48007820B101280BD0022825D118E016
:1032F000242C05D1012016490870002015490870BA
:103300001BE0144801780078401C124A10701248E3
:10331000445410460078052802DB02200C4908704E
:103320000BE02B2C05D101200B494871084601F018
:1033300029FD00200649087000BF00BF40F225515A
:10334000024800F06EF800BF10BD000000440040CD
:103350003B0000203A0000203400002010B540F26D
:1033600025511F4800F0D3F8002837D01C4800F042
:1033700089F9C4B21B48007820B101280BD002287B
:1033800025D118E0242C05D1012016490870002011
:10339000154908701BE0144801780078401C124A57
:1033A00010701248445410460078052802DB0220B1
:1033B0000C4908700BE02B2C05D101200B494871FA
:1033C000084601F0DFFC00200649087000BF00BF7E
:1033D00040F22551024800F024F800BF10BD000063
:1033E0000048004027000020260000202000002088
:1033F00010B504462146054800F05AF900BF802167
:10340000024800F077F80028F9D010BD00480040CD
:1034100001F40072B2F5007F00D100BFCA43028000
:10342000704710B50022002340F66A14A14200D173
:1034300000BF0A1201249440A3B2DC43048010BDF3
:1034400021B1828942F40052828104E082894DF6E2
:10345000FF731A408281704710B5044620488442A9
:1034600009D101218803FFF74DFD00214FF4804071
:10347000FFF748FD32E01B48844209D1012148048E
:10348000FFF720FD00214FF40030FFF71BFD25E082
:103490001548844209D101218804FFF713FD00215A
:1034A0004FF48020FFF70EFD18E01048844209D148
:1034B0000121C804FFF706FD00214FF40020FFF7AB
:1034C00001FD0BE00A48844208D101210805FFF7FD
:1034D000F9FC00214FF48010FFF7F4FC10BD000050
:1034E000003801400044004000480040004C0040CB
:1034F0000050004002460020B1F5007F00D100BF1F
:1035000013880B400BB1012000E00020704770B51C
:103510000246002400230025002040F66A16B1422E
:1035200000D100BFC1F3421501F01F03012606FAC6
:1035300003F3012D02D19689334006E0022D02D11A
:10354000168A334001E0968A33400C12012606FAAF
:1035500004F41688344013B10CB1012000E00020BF
:1035600070BDF0B50346002400260025002040F67B
:103570006A17B94200D100BF1846C1F3421401F0E6
:103580001F06012707FA06F5012C01D10C3004E0D3
:10359000022C01D1103000E014301AB107682F431B
:1035A000076002E00768AF430760F0BD2DE9F04710
:1035B00086B005460E460024A24600BFA14600275D
:1035C000B08900B100BF2F462C8A4CF6FF70044032
:1035D000F08804432C82AC894EF6F3100440B08886
:1035E00031890843718908430443AC81AC8A4FF6A2
:1035F000FF400440B0890443AC8201A8FFF792FC6D
:103600001F48874202D1DDF810A001E0DDF80CA0D0
:10361000A88900F4004040B10AEBCA0000EB0A1090
:1036200031684900B0FBF1F807E00AEBCA0000EB93
:103630000A1031688900B0FBF1F86420B8FBF0F0A3
:1036400004012009642101FB1089A88900F40040CD
:1036500040B1322000EBC900B0FBF1F000F00700F0
:10366000044308E0322000EB09106421B0FBF1F0C4
:1036700000F00F0004432C8106B0BDE8F087000085
:103680000038014001468888C0F3080070470000F8
:1036900010B504462146054800F00AF800BF802115
:1036A0000248FFF727FF0028F9D010BD0044004072
:1036B000C1F30802828070474FF416510160002167
:1036C0008180C18001810C2141810021818170476D
:1036D00000BFFEE72DE9F84F00203B4908703BA0F2
:1036E00000F096F80A20FFF73BF940F2A1113BA049
:1036F00000F08EF86420FFF733F900255CE0002726
:103700002846FEF726FA82464FF08041FEF714F86D
:1037100081463749FEF710F880463649FEF73EF8F5
:10372000064600241EE0601CFEF70AFA31460090AF
:10373000FEF702F88346304850F824105846FDF74B
:10374000A3FF8246FCF772FD81462C4850F82410F6
:103750004846FDF7F1FF80463946FDF795FF0746DD
:10376000601CC4B2052CDEDB4FF086413846FDF705
:10377000E3FF81464FF08041FEF710F880464FF09E
:103780008641FDF781FF07464FF087413846FEF737
:1037900065FA01D21A4F05E000213846FEF754FAC7
:1037A00000D200273846FEF7D9F98046414615A0D9
:1037B00000F02EF8681C85B2B5F5D07F9FDD12A011
:1037C00000F026F8BDE8F88F82060020636C6520C3
:1037D00073302E69642C30FFFFFF00006164647455
:1037E0002073302E69642C302C2564FFFFFF00000D
:1037F000DA0F49400080D043AC080020C008002008
:1038000000007F432563000001FFFFFF0000000070
:103810000FB4054B10B503A9044A029800F0E0F874
:1038200010BC5DF814FB0000E94000089006002081
:1038300002E008C8121F08C1002AFAD17047704779
:10384000002001E001C1121F002AFBD170470000D7
:103850000149086070470000940600202DE9FF5FD1
:1038600082B00021DDE90430020DDDF840B00343F1
:1038700018D044F61050A2F2FF32424315141198AA
:1038800001281FD0A5EB0B00401C5FEA000A4FF097
:1038900000064E4FDFF83891B046504615D5CAF1B4
:1038A000000413E0119801244AA3012801D16FEA12
:1038B0000B010298119AC0E90031C0E9024206B03A
:1038C000BDE8F09FCBF10000DFE704460021404A4D
:1038D000491842EB0450CDE9001012E0E00707D090
:1038E00032463B4640464946FEF749F880468946FF
:1038F00032463B4610461946FEF741F806460F464B
:103900006410002CEAD1DDE90401DDE90023BAF1FD
:10391000000F06DAFEF733F842464B46FEF72FF863
:1039200005E0FEF79EF842464B46FEF79AF804463D
:103930000E460022284BFEF79BFB03D84FF0FF30CA
:10394000014607E00022254B20463146FDF770FF77
:10395000FEF75EFB102409E0002C0ADB0A2200239C
:10396000FEF79CF9039B30321A55641E50EA01029F
:10397000F2D1641C039AC4F111031444119A012A70
:1039800003D0012208430DD10AE0084304D00020EF
:103990004FF0110B119072E7A3EB0B056D1E0DE0BC
:1039A0005B4504DD4FF0000205F1010504E003DA98
:1039B0004FF00002A5F10105002AECD00298119900
:1039C000C0E90231C0E9004579E700000000144079
:1039D0000000F03F300000000000F0430000E03F36
:1039E0002DE9FF4F95B09A46884606460025EEE140
:1039F000252877D100242746F94A0121039400E0C5
:103A0000044316F8013F203B01FA03F01042F7D1BE
:103A100030782A2811D06FF02F033078A0F13002CF
:103A2000092A16D8039A44F0020402EB820203EB3F
:103A300042021044761C0390EFE758F8042B0392DF
:103A4000002A03DA504244F40054039044F0020484
:103A5000761C30782E2816D116F8010F44F0040495
:103A60002A280DD06FF02F023078A0F13003092BF7
:103A700009D807EB870302EB4303C718761CF3E76B
:103A800058F8047B761C30786C280FD006DC4C2864
:103A900017D068280DD06A2814D104E0742810D0FB
:103AA0007A280FD10DE044F400140AE044F48014A5
:103AB00001E044F440147278824202D104F580148B
:103AC000761C761C307866280BD013DC582877D00B
:103AD00009DC002875D04528F6D04628F4D04728C0
:103AE0001AD193E118E0632835D0642879D065288D
:103AF00012D18BE1702873D008DC6728F1D06928D7
:103B00006FD06E280DD06F2806D1ACE073282CD072
:103B1000752874D0782853D05246179990476D1C59
:103B200054E1C4F30250022809D003280DD0D8F87C
:103B3000001004280DD00D6008F1040846E1D8F803
:103B40000010EA17C1E90052F6E7D8F800100D801E
:103B5000F2E70D70F0E718F8041B8DF80010002054
:103B60008DF80100EB46012003E058F804BB4FF04C
:103B7000FF3061074FF0000102D40DE009F10101AF
:103B80008946B9420FDA8145F8DB1BF80910002994
:103B9000F4D108E009F1010189468142FADB1BF802
:103BA00009100029F6D103985346A0EB09072146D6
:103BB0003846179A00F080FA284400EB090507E020
:103BC00044E008E10DE01BF8010B524617999047BD
:103BD000B9F10109F7D2534621463846179AF2E067
:103BE00039E00A21C4F302524FF0000B0091022A7F
:103BF00006D058F8040BC117032A09D00AE023E0C5
:103C000008F1070020F00702F2E80201904605E003
:103C100000B2C117042A01D140B2C117002906DA47
:103C20000A460021404261EB02012D2202E02205FA
:103C300004D52B228DF80420012203E0E20701D0F5
:103C40002022F7E7914657E00A2100E010214FF0CB
:103C5000000B00910BE010214FF0000B44F0040426
:103C60000827009103E008204FF0000B0090C4F3F8
:103C70000252022A05D058F8040B0021032A08D06A
:103C800008E008F1070020F00702F2E80201904680
:103C900003E080B2042A00D1C0B24FF0000922072D
:103CA0002AD53278702A07D0DDF800C08CF0100CCD
:103CB0005CEA0B0C05D00EE040228DF804200122B6
:103CC00008E050EA010306D030238DF804308DF867
:103CD000052002229146009B83F0080353EA0B0360
:103CE0000AD150EA010201D1620705D530228DF8D0
:103CF00004204FF001097F1E3278582A04D039A2DF
:103D00000C920CAA02920BE03BA2F9E75B46009AE8
:103D1000FDF7C4FF0C9B9B5C029A521E029213702B
:103D200050EA0102F2D1029804A9081A00F1200B0E
:103D3000600702D524F4803400E001275F4502DDEE
:103D4000A7EB0B0000E0002000EB0B0100900398B4
:103D50004944401A0390E00306D453462146179A7B
:103D6000039800F0A9F90544002706E001A852468F
:103D7000C05D179990476D1C7F1C4F45F6DBE00333
:103D80000CD553462146179A039800F095F905443F
:103D900004E030205246179990476D1C0099481E48
:103DA00000900029F5DC08E002980299524600785C
:103DB000491C0291179990476D1CBBF10001ABF1B2
:103DC000010BF1DC5BE100F065F90544761C30780D
:103DD00000287FF40DAE19B02846BDE8F08F000032
:103DE00009280100303132333435363738396162D1
:103DF0006364656600000000303132333435363795
:103E0000383941424344454600000000600700D471
:103E1000062708F1070020F00700F0E8022380469B
:103E200003F0004C5FEA0C0001D097A009E02005E8
:103E300001D596A005E0E00701D095A001E0AFF222
:103E40004C001390307823F0004365280CD006DC3A
:103E5000452809D046281DD047287FD13BE0662859
:103E600018D067287AD136E00021112F01DB11200C
:103E700000E0781CCDE9000104A90CA8FFF7EEFCD6
:103E8000DDE90D010C9A4FF0000B07F101091092CA
:103E900000914EE04FF000400097CDE9011004A9D9
:103EA0000CA8FFF7DBFCDDE90D020C9B0F994FF02E
:103EB000000B91461093009211B9791C00EB010997
:103EC000B7EB090003D4C0F1FF3B07F10109A9EBEF
:103ED0000700019042E0012F00DA01270021112F95
:103EE00001DD112000E03846CDE9000104A90CA84D
:103EF000FFF7B4FCDDE90D010C9A00914FF0000BC7
:103F0000B946109221070FD4009A4A4503DA914628
:103F100001E0A9F10109B9F1010F05DD109AA9F13C
:103F20000101515C3029F4D0B84202DA10F1040FDB
:103F300003DA0121CDE9011010E0002803DC8344FD
:103F4000A9EB000102E0411C494500DD8946A0EBD8
:103F50000B00401C01904FF000400290200705D458
:103F60000198484502DB4FF0FF30019000208DF8AA
:103F70004B0002980DF14B07B0F1004F25D0022005
:103F80000C902B200D90029800280CDA40420290F1
:103F90002D200D9007E00A210298FDF769FE3031CF
:103FA000029007F8011D0C99481E0C900029F2DCC4
:103FB00002980028EFD1791E0D980870307800F033
:103FC000200040F0450007F8020D11A8C01BC01DDD
:103FD00002901398007800B1012000EB09010198CC
:103FE00001EBE071029801440398401A401E0390CF
:103FF000E00306D453462146179A039800F05CF874
:1040000005441398007818B15246179990476D1CD3
:10401000E00323D553462146179A039800F04CF845
:1040200005441BE0BBF1000F07DB0098584504DD99
:104030001098179910F80B0001E01799302052469C
:10404000904701980BF1010B401E05F1010501900D
:1040500004D12E205246179990476D1CB9F10001EA
:10406000A9F10109DEDC05E017F8010B52461799AA
:1040700090476D1C0299481E02900029F4DC5346BB
:104080002146179A03989EE62D0000002B000000A1
:10409000200000002DE9F041044600251E46174689
:1040A000880404D405E039462020B0476D1C641E06
:1040B000F9D52846BDE8F0812DE9F04104460025F8
:1040C0001E469046C80301D5302700E0202788040B
:1040D00004D505E041463846B0476D1C641EF9D54D
:1040E0002846BDE8F081000070B504460D4604483E
:1040F000007810B9E0B2FFF7CBFA204670BD00009F
:104100008206002092B04FF4A060FEF7A3FEFEF7F7
:10411000CDF94FF4165000F0EDFE4FF41650FEF7B7
:1041200061FAFDE3FE48007818B9FE4800780028DF
:10413000F7D00020119008E00021FB4A119842F8C6
:1041400020101198401CC0B2119011980528F3DB83
:10415000F448007800287CD0F1480078002878D115
:10416000FEF73EF90120F1490870D6E2EF480078E9
:1041700020B9FEF735F90120EC490870EC480078C9
:10418000012867D1FEF710FCEA4BEB4A8021EB488F
:10419000FEF733FFEA480078B0B9E64800880E9091
:1041A000FDF7D7FC0F90E74801680F98FDF7C4FAB8
:1041B0004FF087411090FDF7F1FAE34908601021B4
:1041C000E1480068FEF776FA4FF08741DD48006865
:1041D000FDF7B2FA4FF083410F90FDF7DFFADB49AC
:1041E0001090FDF731FD7ED2D5480078022873DCAF
:1041F000D348007800286FDDCE480088CF4951F8B9
:104200002000014606904FF08040FDF795FA079098
:10421000C8480088401CC94951F820000146069052
:104220000798FDF783FA0890C2480088401EC349EA
:1042300051F82000014607900898FDF777FA099099
:10424000FDF7D2FCCDE90C01BA480088401EBB49FD
:1042500001E068E260E251F820000690B54800886D
:10426000401C51F8200005900699FDF75FFA079071
:10427000FDF7BAFC0022B64BCDE90801FDF77FFB44
:10428000CDE90A01DDE90C23FDF7EBFBCDE90E01D9
:10429000FDF7BDFC1090A74800880C90FDF759FC75
:1042A0000D901099FDF7F0F90E90A64801680E9850
:1042B000FDF742FA4FF087410F90FDF76FFAA249E0
:1042C00008609F480078022807D010219E480068A7
:1042D000FEF7F0F906E006E011E008219A480068D0
:1042E000FEF7E8F90BE0082197480068FEF7E2F9CD
:1042F00093480078022802DA022091490870904819
:10430000007803287EDB8E48007834287ADA002192
:104310008848801CCDE90001801E00884FF6FF719F
:1043200001EA4000844B1B1D024680210F90834808
:10433000FEF780FE01217F48001DCDE90001001F2E
:10434000008800EB400080B27B4B0833024680219E
:104350000F907A48FEF76EFE02217648801DCDE967
:104360000001801F00884FF6FF7101EA8000724B48
:104370000C33024680210F907048FEF75BFE03214C
:104380006C480830CDE900010838008800EB800057
:1043900080B2694B1033024680210F906748FEF7C8
:1043A00049FE4FF07E506B490860634800680F90EB
:1043B000614840680E900F99FDF7F0F96549486033
:1043C0005D4800680F905C4880680E900F99FDF77B
:1043D000E5F960498860584800680F905648C06801
:1043E0000E900F99FDF7DAF95A49C86052480068F3
:1043F0000F90514800690E900F99FDF7CFF955497C
:10440000086100E01BE00120109014E05149109871
:1044100051F8200044490F90109851F820000E9058
:104420000F99FDF731F9404A109942F82100109890
:10443000401CC0B2109010980528E7DB00BF404830
:10444000007834286AD100213A48801CCDE9000167
:10445000801E00884FF6FF7101EA4000364B1B1D9D
:10446000024680210D903548FEF7E4FD01213148D8
:10447000001DCDE90001001F008800EB400080B264
:104480002D4B0833024680210D902C48FEF7D2FDBB
:1044900002212848801DCDE90001801F00884FF6C9
:1044A000FF7101EA8000244B0C33024680210D90FD
:1044B0002248FEF7BFFD03211E480830CDE9000168
:1044C0000838008800EB800080B21B4B1033024696
:1044D00080210D901948FEF7ADFD4FF07E501D492B
:1044E0000860154800680D90134840680C900D99BD
:1044F000FDF754F9174948600F4800680D900E48C1
:1045000080680C900D99FDF749F9124988600A48B6
:1045100000680D900848C0680C901DE0F2E00000B3
:104520008306002084060020E00800208106002089
:1045300014000020D408002098080020281900202A
:10454000800600201C000020880600200080BB445C
:104550000000E03FC00800200D99FDF71FF9FE495B
:10456000C860FE4800680D90FC4800690C900D99E9
:10457000FDF714F9F84908610120109014E0F6499C
:10458000109851F82000F6490D90109851F820002D
:104590000C900D99FDF778F8F14A109942F8210036
:1045A0001098401CC0B2109010980528E7DB01203D
:1045B00010900FE0EA49109851F82000E9490D9059
:1045C000FDF7ECF8E44A109942F821001098401CDD
:1045D000C0B2109010980528ECDBE349E34800686E
:1045E000FDF7DCF80D90FDF7B9FA401E0F900120A1
:1045F000109024E0DE490F9801EB00111098401E46
:1046000051F82000D4490D90109851F820000C90DA
:104610000D99FDF7C3F8D04A109942F821001146D0
:10462000109851F82000D3490D90FDF785F8CA4A3B
:10463000109942F821001098401CC0B210901098B8
:104640000528D7DBC44800690690C3480069059077
:104650000699FDF771F80890BF48C0680490BE48FD
:10466000C06803900499FDF767F80690BA4880681F
:104670000290B948806801900299FDF75DF80490B6
:10468000B54840680290B448406801900299FDF72F
:1046900053F803900499FCF7F7FF05900699FCF78F
:1046A000F3FF07900899FCF7EFFF0990FDF79CFADC
:1046B000CDE90A0100F0E2FBCDE90C01FDF7A7FA14
:1046C000AD490860FEF7C8FAFFF704F80020AB49CF
:1046D0000870FEF727FBAA480E900E98FEF7D0FC54
:1046E0000020A8490870A8490870A848FDF71AFDDD
:1046F000A649A74801600846A64908600020A649C7
:1047000008700AE000209F4908709F4908709B4884
:104710000078401C9949087000BF9F480078002825
:104720007FF424AD04E39C4800780028FAD19B482C
:1047300000780028F6D0FDF753FE0120924908705A
:10474000F1E29148007820B9FDF74AFE01208E4938
:1047500008708C48007801287DD1FEF725F9904B30
:104760007E4A80218F48FEF748FC84480078B0B923
:104770008B4800880E90FDF7ECF90F908448016893
:104780000F98FCF7D9FF4FF087411090FDF706F81E
:1047900076490860102175480068FDF78BFF4FF0DF
:1047A00087417B480068FCF7C7FF4FF083410F90BB
:1047B000FCF7F4FF7C491090FDF746FA7DD26F4874
:1047C0000078022872DC6D48007800286EDD74489D
:1047D0000088744951F82000014606904FF080404F
:1047E000FCF7AAFF07906E480088401C6D4951F8FD
:1047F0002000014606900798FCF798FF089068484B
:104800000088401E674951F820000146079008982B
:10481000FCF78CFF0990FDF7E7F9CDE90C01604842
:104820000088401E5F4951F8200006905C480088CF
:10483000401C51F8200005900699FCF777FF07907F
:10484000FDF7D2F90022594BCDE90801FDF797F8A1
:10485000CDE90A0100E065E2DDE90C23FDF701F98D
:10486000CDE90E01FDF7D3F910904D4800880C906A
:10487000FDF76FF90D901099FCF706FF0E90444874
:1048800001680E98FCF758FF4FF087410F90FCF736
:1048900085FF3649086039480078022807D0102182
:1048A00032480068FDF706FF06E006E011E0082147
:1048B0002E480068FDF7FEFE0BE008212B4800683B
:1048C000FDF7F8FE2D480078022802DA02202B4975
:1048D00008702A48007803286ADB284800783428C2
:1048E00066DA00212E48801CCDE90001801E008878
:1048F0004FF6FF7101EA4000184B1B1D0246802154
:104900000F902848FEF796FB01212548001DCDE9B0
:104910000001001F008800EB400080B20F4B00E058
:1049200007E20833024680210F901E48FEF782FB03
:1049300002211B48801DCDE90001801F00884FF631
:10494000FF7101EA8000054B0C33024680210F9075
:104950001448FEF76FFB2CE0C008002098080020E8
:10496000E00800200000484200007A448806002049
:104970003C0000205C8F823F8C06002080060020D7
:10498000F4080020140000208106002000007A486E
:104990001C00002018000020840600208306002050
:1049A000D4080020281900200080BB440000E03F0C
:1049B00063E00321E048CDE900010838008800EBFE
:1049C000800080B2DD4B024680210F90DC48FEF76C
:1049D00031FB4FF07E50DB490860D8481038006842
:1049E0000F90D648103840680E900F99FCF7D6FE0D
:1049F000D4494860D148103800680F90CF4810382B
:104A000080680E900F99FCF7C9FECE498860CB48AC
:104A1000103800680F90C9481038C0680E900F9980
:104A2000FCF7BCFEC749C860C448103800680F9046
:104A3000C248103800690E900F99FCF7AFFEC149CB
:104A400008610120109014E0BE49109851F8200030
:104A5000BD490F90109851F820000E900F99FCF767
:104A600013FEB94A109942F821001098401CC0B2B8
:104A7000109010980528E7DB00BFB4480078342870
:104A80007ED10021AC48801FCDE90001801E008846
:104A90004FF6FF7101EA4000A84B0C3B0246802113
:104AA0000D90A748FEF7C6FA0121A348001FCDE9E3
:104AB0000001001F008800EB400080B29F4B083BC4
:104AC000024680210D909E48FEF7B4FA02219A48D2
:104AD000801ECDE90001801F00884FF6FF7101EABA
:104AE0008000964B1B1F024680210D909448FEF7D4
:104AF000A1FA03219048CDE900010838008800EBB5
:104B0000800080B28D4B024680210D908C48FEF7CC
:104B100091FA4FF07E508B49086088481038006841
:104B20000D908648103840680C900D99FCF736FEC1
:104B3000844948608148103800680D907F481038DB
:104B400080680C900D99FCF729FE7E4988607B48AF
:104B5000103800680D9079481038C0680C900D9995
:104B6000FCF71CFE7749C8607448103800680D9047
:104B70007248103800690C900D99FCF70FFE00E0A8
:104B8000C6E0704908610120109014E06D4910984A
:104B900051F820006C490D90109851F820000C90AD
:104BA0000D99FCF771FD684A109942F821001098A0
:104BB000401CC0B2109010980528E7DB012010902F
:104BC0000FE06149109851F8200061490D90FCF701
:104BD000E5FD5C4A109942F821001098401CC0B2D3
:104BE000109010980528ECDB5A495B480068FCF7E8
:104BF000D5FD0D90FCF7B2FF401E0F9001201090E4
:104C000024E056490F9801EB00111098401E51F80E
:104C100020004C490D90109851F820000C900D99EF
:104C2000FCF7BCFD474A109942F821001146109844
:104C300051F820004A490D90FCF77EFD414A109939
:104C400042F821001098401CC0B21090109805281E
:104C5000D7DB3C48006906903A4800690590069900
:104C6000FCF76AFD08903748C06804903548C06872
:104C700003900499FCF760FD06903248806802902A
:104C80003048806801900299FCF756FD04902D4849
:104C9000406802902B48406801900299FCF74CFD57
:104CA00003900499FCF7F0FC05900699FCF7ECFCE6
:104CB00007900899FCF7E8FC0990FCF795FFCDE90F
:104CC0000A0100F0DBF8CDE90C01FCF7A0FF254953
:104CD0000860FDF7C1FFFEF7FDFC00201B490870CE
:104CE000FEF720F820480E900E98FEF7C9F9002034
:104CF0001E4908701E4908701E48FDF713FA1D482A
:104D00001D4908601D49086000201D4908700AE01F
:104D1000002016490870164908700C480078401C9D
:104D20000A49087000BF1648007800287FF409ADD2
:104D300000BFFFF7F7B90000DC080020A80800203A
:104D400028190020C0080020E0080020800600206C
:104D50000000484200007A44880600203C00002001
:104D60005C8F823F8C060020F40800201400002095
:104D70008106002000007A481C0000201800002056
:104D80008306002030B50023002200210CE0445CA3
:104D9000302C02D15C1CE3B204E0445C3F2C01D116
:104DA000541CE2B24C1CE1B20529F0DB032B09DBF9
:104DB0000B4C247834B90B4C24781CB90124084DD1
:104DC0002C700AE0032A08DB054C24782CB9054C2A
:104DD000247814B90124034D2C700024447130BD93
:104DE00083060020840600202DE9F04D07460E467C
:104DF000FDF7CAF804460D463A463346FCF7BCFDBB
:104E0000DFF86CA0DFF86CB01B4B0746884616F045
:104E1000004F4FF000020AD0FDF712F90AD9002224
:104E20005B4638464146FDF723F91BD212E0FDF7F9
:104E300007F908D20022534620462946FCF799FD7F
:104E400004460D460EE000225B4638464146FDF71B
:104E50000FF907D80022534620462946FCF7E8FC04
:104E600004460D463146204665F31E01BDE8F08D2F
:104E70000000F03F0000E03F0000E0BF2DE9F041FE
:104E800006460F46FDF72FF8041E0D4618BF0120F9
:104E9000284320F00040C0F17F6000F1E040C00FE7
:104EA0000ED0301C18BF0120384320F00040C0F164
:104EB0007F6000F1E040C00F04BF0120FEF7C8FC96
:104EC00020462946BDE8F08170B50546FCF77FFF16
:104ED000044620F00040C0F1FF40C00F08D025F08C
:104EE0000040C0F1FF40C00F04BF0120FEF7B0FC3E
:104EF000204670BD10B586B0044601214804FDF778
:104F0000D1FF01210420FDF7EDFF2248FEF7A4FAAE
:104F10000420ADF8140003208DF8160018208DF839
:104F2000170005A91C48FDF70BFE0820ADF814007A
:104F300004208DF8170005A91748FDF701FE26206B
:104F40008DF8000003208DF801008DF8020001208B
:104F50008DF803006846FDF745FF01940020ADF889
:104F60000800ADF80A00ADF80C00ADF810000C20F8
:104F7000ADF80E0001A90748FEF718FB012240F228
:104F800025510448FEF7EDFA01210248FEF758FAD0
:104F900006B010BD004400400008014000000000C1
:104FA00087251F39581F1F3AABF7B23A9E061F3BA1
:104FB000605D783B1CB9B23B1B1AF33BD4A31E3C8B
:104FC000209B483C6A6C773C3688953C90BFB13C4E
:104FD000E057D03C654CF13C004C0A3D9A1A1D3D0F
:104FE000140F313D5526463D155D5C3DE1AF733DE7
:104FF0008C0D863D78CD923DB815A03D3DE4AD3D8C
:10500000E036BC3D690BCB3D895FDA3DDE30EA3DE1
:10501000F37CFA3DA0A0053E943D0E3E0014173EE1
:105020008322203EB767293E28E2323E60903C3E14
:10503000DC70463E1382503E76C25A3E6B30653E6F
:1050400055CA6F3E8C8E7A3EB3BD823E9847883EED
:1050500017E48D3E5392933E6951993E74209F3ED2
:105060008EFEA43ECCEAAA3E43E4B03E06EAB63E3B
:1050700025FBBC3EAE16C33EAE3BC93E3269CF3EB9
:10508000439ED53EEAD9DB3E2F1BE23E1A61E83E45
:10509000B0AAEE3EF8F6F43EF744FB3ED9C9003F15
:1050A00018F1033FB917073F403D0A3F30610D3FFC
:1050B0000C83103F56A2133F94BE163F48D7193FAA
:1050C000F9EB1C3F2AFC1F3F6407233F2B0D263FB3
:1050D000080D293F85062C3F29F92E3F81E4313FF9
:1050E00018C8343F7AA3373F37763A3FDE3F3D3F1B
:1050F0000000403F30B6423F0162453F0A03483F4F
:10510000E2984A3F22234D3F65A14F3F4713523F4C
:105110006878543F69D0563FEB1A593F94575B3F2C
:105120000B865D3FF9A55F3F09B7613FEAB8633F72
:105130004BAB653FDE8D673F5A60693F76226B3F20
:10514000EAD36C3F75746E3FD503703FCD81713FDC
:1051500020EE723F9748743FFB90753F1AC7763F29
:10516000C3EA773FC9FB783F01FA793F44E57A3FCC
:105170006EBD7B3F5C827C3FF1337D3F10D27D3F33
:10518000A15C7E3F8FD37E3FC7367F3F39867F3F0E
:10519000DAC17F3F9FE97F3F83FD7F3F83FD7F3FF4
:1051A0009FE97F3FDAC17F3F39867F3FC7367F3F28
:1051B0008FD37E3FA15C7E3F10D27D3FF1337D3F98
:1051C0005C827C3F6EBD7B3F44E57A3F01FA793FCC
:1051D000C9FB783FC3EA773F1AC7763FFB90753F1C
:1051E0009748743F20EE723FCD81713FD503703FE9
:1051F00075746E3FEAD36C3F76226B3F5A60693F0D
:10520000DE8D673F4BAB653FEAB8633F09B7613F4F
:10521000F9A55F3F0B865D3F94575B3FEB1A593F03
:1052200069D0563F6878543F4713523F65A14F3FBE
:1052300022234D3FE2984A3F0A03483F0162453F1F
:1052400030B6423F0000403FDE3F3D3F37763A3FB9
:105250007AA3373F18C8343F81E4313F29F92E3F04
:1052600085062C3F080D293F2B0D263F6407233F61
:105270002AFC1F3FF9EB1C3F48D7193F94BE163F4D
:1052800056A2133F0C83103F30610D3F403D0A3F53
:10529000B917073F18F1033FD9C9003FF744FB3E58
:1052A000F8F6F43EB0AAEE3E1A61E83E2F1BE23E4D
:1052B000EAD9DB3E439ED53E3269CF3EAE3BC93E86
:1052C000AE16C33E25FBBC3E06EAB63E43E4B03E06
:1052D000CCEAAA3E8EFEA43E74209F3E6951993EC0
:1052E0005392933E17E48D3E9847883EB3BD823E6D
:1052F0008C8E7A3E55CA6F3E6B30653E76C25A3E02
:105300001382503EDC70463E60903C3E28E2323EC6
:10531000B767293E8322203E0014173E943D0E3E7F
:10532000A0A0053EF37CFA3DDE30EA3D895FDA3D20
:10533000690BCB3DE036BC3D3DE4AD3DB815A03D2D
:1053400078CD923D8C0D863DE1AF733D155D5C3DA2
:105350005526463D140F313D9A1A1D3D004C0A3D1D
:10536000654CF13CE057D03C90BFB13C3688953C51
:105370006A6C773C209B483CD4A31E3C1B1AF33B31
:105380001CB9B23B605D783B9E061F3BABF7B23A5F
:10539000581F1F3A87251F39000000000000000039
:1053A000A13B6538316265395B2B013A2EFC653AC9
:1053B0000407B43AA9ED013B8A57313BB35F683B20
:1053C0008C94933B78EDB63B4B50DE3B58EA043C63
:1053D0001CCA1C3C1FD5363CEC19533CD9A7713C68
:1053E0007C47893C06F09A3C3BD6AD3C1003C23C5E
:1053F000BA7FD73CA355EE3C2F47033DD119103D52
:105400009DA71D3D83F52B3D71083B3D53E54A3D6E
:105410000C915B3D72106D3D45687F3D974E893D17
:10542000DC59933D25D89D3D90CBA83D2636B43D13
:10543000D319C03D6B78CC3D9E53D93DFEACE63DC3
:10544000F885F43DEA6F013ED7DD083E3D8D103E04
:105450007F7E183EE9B1203EAE27293EE6DF313E91
:1054600090DA3A3E9117443EB0964D3E9857573EDB
:10547000D559613ED99C6B3EF21F763E2A71803E23
:1054800088F1853E8C908B3EA14D913E1F28973E22
:105490004F1F9D3E6B32A33E9C60A93EF9A8AF3ED4
:1054A0008E0AB63E5184BC3E2F15C33EFFBBC93E9B
:1054B0008E77D03E9846D73ECB27DE3EC519E53ED7
:1054C0001A1BEC3E4E2AF33ED845FA3E12B6003F78
:1054D000C94D043F3CE9073F8E870B3FE0270F3F54
:1054E0004FC9123FEF6A163FD50B1A3F11AB1D3F54
:1054F000AE47213FB6E0243F3175283F22042C3FC0
:105500008F8C2F3F780D333FE185363FC9F4393F0B
:1055100033593D3F21B2403F95FE433F953D473FC4
:10552000266E4A3F518F4D3F22A0503FA89F533FC8
:10553000F68C563F2167593F452D5C3F82DE5E3F2A
:10554000FD79613FE2FE633F616C663FB4C1683F35
:1055500017FE6A3FD3206D3F33296F3F8F16713F8F
:1055600043E8723FB79D743F5936763FA2B1773F0B
:10557000140F793F3B4E7A3FAB6E7B3F06707C3F0A
:10558000F3517D3F28147E3F63B67E3F6E387F3FE8
:105590001D9A7F3F4EDB7F3FECFB7F3FECFB7F3F65
:1055A0004EDB7F3F1D9A7F3F6E387F3F63B67E3F65
:1055B00028147E3FF3517D3F06707C3FAB6E7B3FEE
:1055C0003B4E7A3F140F793FA2B1773F5936763F71
:1055D000B79D743F43E8723F8F16713F33296F3F89
:1055E000D3206D3F17FE6A3FB4C1683F616C663FD0
:1055F000E2FE633FFD79613F82DE5E3F452D5C3F09
:105600002167593FF68C563FA89F533F22A0503F39
:10561000518F4D3F266E4A3F953D473F95FE433F94
:1056200021B2403F33593D3FC9F4393FE185363F10
:10563000780D333F8F8C2F3F22042C3F3175283F4C
:10564000B6E0243FAE47213F11AB1D3FD50B1A3FBB
:10565000EF6A163F4FC9123FE0270F3F8E870B3F7F
:105660003CE9073FC94D043F12B6003FD845FA3E1A
:105670004E2AF33E1A1BEC3EC519E53ECB27DE3E13
:105680009846D73E8E77D03EFFBBC93E2F15C33E0E
:105690005184BC3E8E0AB63EF9A8AF3E9C60A93E3E
:1056A0006B32A33E4F1F9D3E1F28973EA14D913E5A
:1056B0008C908B3E88F1853E2A71803EF21F763EAB
:1056C000D99C6B3ED559613E9857573EB0964D3E9A
:1056D0009117443E90DA3A3EE6DF313EAE27293E4E
:1056E000E9B1203E7F7E183E3D8D103ED7DD083E5D
:1056F000EA6F013EF885F43DFEACE63D9E53D93D90
:105700006B78CC3DD319C03D2636B43D90CBA83D37
:1057100025D89D3DDC59933D974E893D45687F3D99
:1057200072106D3D0C915B3D53E54A3D71083B3D68
:1057300083F52B3D9DA71D3DD119103D2F47033DFE
:10574000A355EE3CBA7FD73C1003C23C3BD6AD3CE0
:1057500006F09A3C7C47893CD9A7713CEC19533C34
:105760001FD5363C1CCA1C3C58EA043C4B50DE3B5F
:1057700078EDB63B8C94933BB35F683B8A57313BE3
:10578000A9ED013B0407B43A2EFC653A5B2B013AC4
:1057900031626539A13B653800000000000100005E
:1057A000AC570008AC5F0008B80100000000803F63
:1057B0000000000043EC7F3FB00AC93C0FB17F3FBF
:1057C0002FFB483D6D4E7F3F05A9963D6DC47E3F42
:1057D00036BDC83D24137E3F73B2FA3DAC3A7D3FDF
:1057E0008340163E283B7C3FA2102F3EBE147B3FD9
:1057F000C2C5473E9DC7793F135C603EF853783F72
:10580000CCCF783E07BA763F938E883E0BFA743F32
:1058100031A0943E4714733FE59AA03E0809713FBA
:10582000D47CAC3E9ED86E3F2A44B83E5E836C3F2B
:1058300015EFC33EA7096A3FCA7BCF3ED86B673FCF
:1058400080E8DA3E59AA643F7533E63E98C5613F69
:10585000EA5AF13E05BE5E3F275DFC3E1A945B3F6F
:105860003D9C033F5348583F9BF5083F31DB543F75
:10587000DA390E3F3D4D513F2A68133F029F4D3F9D
:10588000C07F183F12D1493FD17F1D3F03E4453F00
:105890009967223F70D8413F5636273FF9AE3D3FCA
:1058A0004AEB2B3F4268393FBB85303FF304353F1D
:1058B000F304353FBB85303F4268393F4AEB2B3F0D
:1058C000F9AE3D3F5636273F70D8413F9967223F9A
:1058D00003E4453FD17F1D3F12D1493FC07F183FB0
:1058E000029F4D3F2A68133F3D4D513FDA390E3F2D
:1058F00031DB543F9BF5083F5348583F3D9C033FE5
:105900001A945B3F275DFC3E05BE5E3FEA5AF13EBE
:1059100098C5613F7533E63E59AA643F80E8DA3E98
:10592000D86B673FCA7BCF3EA7096A3F15EFC33EDE
:105930005E836C3F2A44B83E9ED86E3FD47CAC3E1A
:105940000809713FE59AA03E4714733F31A0943E89
:105950000BFA743F938E883E07BA763FCCCF783EE1
:10596000F853783F135C603E9DC7793FC2C5473E00
:10597000BE147B3FA2102F3E283B7C3F8340163E47
:10598000AC3A7D3F73B2FA3D24137E3F36BDC83D2D
:105990006DC47E3F05A9963D6D4E7F3F2FFB483D70
:1059A0000FB17F3FB00AC93C43EC7F3F00000000CD
:1059B0000000803FB00AC9BC43EC7F3F2FFB48BDCD
:1059C0000FB17F3F05A996BD6D4E7F3F36BDC8BD67
:1059D0006DC47E3F73B2FABD24137E3F834016BE72
:1059E000AC3A7D3FA2102FBE283B7C3FC2C547BECC
:1059F000BE147B3F135C60BE9DC7793FCCCF78BEA1
:105A0000F853783F938E88BE07BA763F31A094BE94
:105A10000BFA743FE59AA0BE4714733FD47CACBE2A
:105A20000809713F2A44B8BE9ED86E3F15EFC3BE29
:105A30005E836C3FCA7BCFBEA7096A3F80E8DABEAF
:105A4000D86B673F7533E6BE59AA643FEA5AF1BE88
:105A500098C5613F275DFCBE05BE5E3F3D9C03BF10
:105A60001A945B3F9BF508BF5348583FDA390EBF85
:105A700031DB543F2A6813BF3D4D513FC07F18BFF3
:105A8000029F4D3FD17F1DBF12D1493F996722BF71
:105A900003E4453F563627BF70D8413F4AEB2BBF42
:105AA000F9AE3D3FBB8530BF4268393FF30435BF97
:105AB000F304353F426839BFBB85303FF9AE3DBF87
:105AC0004AEB2B3F70D841BF5636273F03E445BF12
:105AD0009967223F12D149BFD17F1D3F029F4DBF21
