:020000040800F2
:10000000F01A00200902000875290008B32800082A
:100010007129000841240008AF31000800000000E9
:100020000000000000000000000000008D2B000810
:100030006326000800000000FD2900081D2D0008AF
:1000400023020008230200082302000823020008FC
:1000500023020008230200082302000823020008EC
:100060002302000823020008230200084524000898
:1000700023020008230200082302000823020008CC
:1000800023020008230200082302000823020008BC
:1000900023020008230200082302000823020008AC
:1000A000230200082302000823020008230200089C
:1000B000230200082302000823020008230200088C
:1000C000230200082302000823020008230200087C
:1000D0002302000823020008230200085D2E000806
:1000E000230200082302000823020008230200085C
:1000F000230200082302000823020008230200084C
:10010000230200082302000823020008230200083B
:10011000230200082302000823020008230200082B
:10012000230200082302000823020008230200081B
:100130004B1C012B98BF70472DE9F003911C9B08C5
:10014000B1F80480B1F802900A8831F802CC8044FA
:10015000814402448444D9F80070D8F800601568DE
:10016000DCF80040C9F80060C8F80070CCF8005016
:100170001460D9F80470D8F804605568DCF80440BD
:10018000C9F80460C8F80470CCF804505460083111
:100190005B1ED5D1BDE8F00370474B1C012B98BF07
:1001A00070472DE9F003911C9B08B1F80480B1F869
:1001B00002900A8831F802CC00EB580800EB59098C
:1001C00000EB520200EB5C0CD9F80070D8F800602C
:1001D0001568DCF80040C9F80060C8F80070CCF879
:1001E0000050146008315B1EDFD1BDE8F00370479A
:1001F000DFF810D001F04AFE0048004789360008B9
:10020000AFF30080F01A00200648804706480047F8
:10021000FEE7FEE7FEE7FEE7FEE7FEE7FEE7FEE7B6
:10022000FEE7FEE7212D0008F10100082DE9F04767
:1002300091460D46044697084FF0000866D000BF6F
:1002400054F8046B54F8040B014601F031FA82466D
:100250003146084601F02CFA514601F0D1F92E1D25
:1002600010F1FF4F28BFC5F8008002D203F0BCFD9B
:10027000286054F8045B54F8040B014601F018FAA6
:1002800082462946084601F013FA514601F0B8F9B2
:10029000351D10F1FF4F28BFC6F8008002D203F0D1
:1002A000A3FD306054F8046B54F8040B014601F0D0
:1002B000FFF982463146084601F0FAF9514601F04D
:1002C0009FF92E1D10F1FF4F28BFC5F8008002D204
:1002D00003F08AFD286054F8045B54F8040B0146CF
:1002E00001F0E6F982462946084601F0E1F9514657
:1002F00001F086F9351D10F1FF4F28BFC6F80080C8
:1003000002D203F071FD30607F1E99D119F003060F
:1003100008BFBDE8F08700BF54F8047B54F8040B15
:10032000014601F0C5F981463946084601F0C0F999
:10033000494601F065F92F462D1D10F1FF4F28BFEA
:10034000C7F8008002D203F04FFD3860761EE3D17B
:10035000BDE8F0872DE9F34F9BB00C461B98008851
:1003600001EB80051B99400804EB8006D1F804805E
:100370000590CDE90B5405EB80075FEA900900F08A
:1003800004812368029362681792A2681A92E26855
:10039000159229680E9168680690A8681290E8681E
:1003A00011903068189072680792B2681692F268DD
:1003B0000392D7E900A01390B86810901846D7F8B8
:1003C0000CB001F01DF944F8040B0699179801F0E0
:1003D00017F944F8040B12991A9801F011F944F82E
:1003E000040B1199159801F00BF944F8040B0E99C0
:1003F000029801F057F90E900699179801F052F9FA
:10040000069012991A9801F04DF9129011991598C9
:1004100001F048F911905146189801F0F1F846F8AA
:10042000040B1399079801F0EBF846F8040B1099A8
:10043000169801F0E5F846F8040B5946039801F0C8
:10044000DFF846F8040B5046189901F02BF9149088
:100450000799139801F026F913901699109801F056
:1004600021F910905846039901F01CF9824658F87A
:10047000040B019058F804BB01990E9801F018F98B
:1004800003905946069801F013F9029001990698D5
:1004900001F00EF9069059460E9801F009F90790FF
:1004A000DDE9021001F0ACF845F8040BDDE90601C6
:1004B00001F0F8F845F8040B5946149801F0F8F8E3
:1004C00003900199139801F0F3F80290594613989C
:1004D00001F0EEF806900199149801F0E9F88346CE
:1004E000DDE9021001F0DEF847F8040B59460698E2
:1004F00001F086F847F8040B58F8040B019058F8FF
:1005000004BB0199129801F0D3F803905946119851
:1005100001F0CEF802900199119801F0C9F8069007
:100520005946129801F0C4F80790DDE9021001F075
:1005300067F845F8040BDDE9060101F0B3F845F86A
:10054000040B5946109801F0B3F8039050460199F6
:1005500001F0AEF802905046594601F0A9F88346E2
:100560000199109801F0A4F88246DDE9021001F02B
:1005700099F847F8040B5146584601F041F847F8FE
:10058000040BB9F101097FF4FCAE1B980223059915
:1005900042680C9800F0F8FB1B980599022342680A
:1005A0000B981DB0BDE8F04F00F0EEBB2DE9F34F06
:1005B000A7B00F4627980088400801EB800404EBA1
:1005C000800606EB800518961A95CDE91D412799FE
:1005D000A5F1040A0AEB80094968400806900A91CF
:1005E0000420199006200E910D911590306801900D
:1005F0003868A4F1040BA6F104080090019900F0FA
:10060000FFFF0290DDE9000101F04CF803907068F3
:10061000059078680190059900F0F2FF0090059927
:10062000019801F03FF8019060681090014603982E
:1006300000F0E6FF69680C9101F034F8169020682C
:100640000F900146019801F02DF82968059100F0FE
:10065000D7FF11900F99029801F024F8059901F045
:1006600021F814901099009801F01CF80C9901F0F1
:1006700019F80B901099039801F014F80C9900F0F8
:10068000BFFF0C900F99019800F0BAFF059901F097
:1006900009F812900F99029800F0B2FF059900F046
:1006A000AFFF47F8040B6168009800F0A9FF696884
:1006B00000F0A6FF47F8040B169844F8040B1198B5
:1006C00044F8040B149846F8040B0B9846F8040BF6
:1006D0000C9845F8040B129845F8040B0A9901F19F
:1006E00008000D990A9001F110000E990D9001F18A
:1006F00018000E900698801E4008209000F0C681D9
:100700003068019038680090019900F079FF0290FC
:10071000DDE9000100F0C6FF03907068059078687D
:100720000190059900F06CFF00900599019800F088
:10073000B9FF019060680C900146039800F060FFDB
:100740006968109100F0AEFF169020680F90014686
:10075000019800F0A7FF2968059100F051FF119062
:100760000F99029800F09EFF059900F09BFF1490EE
:100770000C99009800F096FF109900F093FF0B90F1
:100780000C99039800F08EFF109900F039FF0C903F
:100790000F99019800F034FF059900F083FF129043
:1007A0000F99029800F02CFF059900F029FF47F8F7
:1007B000040B6168009800F023FF696800F020FFD7
:1007C00047F8040B5AF8040C02905BF8040C0190F3
:1007D000029900F015FF0090DDE9010100F062FFD1
:1007E0000190DAF800000590DBF80000039005990D
:1007F00000F006FF02900599039800F053FF109057
:100800000390D9F800000590D8F8000013900599DE
:1008100000F048FF2290019900F0F2FE269058F86F
:10082000041C1098109100F03DFF59F8041C0F9122
:1008300000F0E6FE23901099009800F033FF0F9926
:1008400000F030FF24901399029800F02BFF0599D7
:1008500000F028FF21900199229800F023FF2290B8
:10086000DDE90F0100F01EFF039900F01BFF179058
:100870001399029800F0C4FE059900F0C1FECBF870
:100880000000ABF104011F9158F8041C009800F01F
:10089000B7FE59F8041C00F0B3FE1F99ABF1080B2A
:1008A00008600A98006801900A9841680091083031
:1008B0000A900199169800F0FBFE1090009911988B
:1008C00000F0F6FE0F900199119800F0F1FE0390F0
:1008D0000099169800F0ECFE0290DDE90F1000F090
:1008E0008FFE44F8040BDDE9021000F0DBFE44F853
:1008F000040B0099239800F0DBFE109001992698D4
:1009000000F0D6FE0F900099269800F0D1FE0390DB
:100910000199239800F0CCFE0290DDE90F1000F061
:10092000C1FEA8F10401C8F800001C91DDE9021025
:1009300000F066FE1C99A8F1080808600D980D9952
:10094000006801900D9840680090199801EB8000B4
:100950000D900199149800F0ABFE109000990B983F
:1009600000F0A6FE0F9001990B9800F0A1FE0390F5
:100970000099149800F09CFE0290DDE90F1000F041
:100980003FFE46F8040BDDE9021000F08BFE46F84E
:10099000040B2198019980F0004000F089FE10902E
:1009A0000099249800F084FE0F900199249800F09B
:1009B0007FFE03900099219800F07AFE0290DDE915
:1009C0000F1000F06FFEAAF10401CAF800000991AF
:1009D000DDE9020100F066FE0999AAF1080A086043
:1009E0000E98006801900E981599406800900E9836
:1009F00000EB81000E9001990C9800F059FE1090C8
:100A00000099129800F054FE0F900199129800F08E
:100A10004FFE039000990C9800F04AFE0290DDE929
:100A20000F1000F0EDFD45F8040BDDE9021000F0B9
:100A300039FE45F8040B0099179800F039FE109024
:100A40000199229800F034FE0F900099229800F04E
:100A50002FFE03900199179800F02AFE0290DDE91D
:100A60000F1000F01FFEA9F10401C9F800001B914E
:100A7000DDE9021000F0C4FD1B99A9F10809086026
:100A80002098401E20907FF43BAE00BFD6F8008037
:100A9000D7F800904146484600F0B2FD029041462A
:100AA000484600F0FFFD0390D6F80490D7F8048084
:100AB0004946404600F0A4FD00904946404600F0FB
:100AC000F1FD019060680F900146039800F098FDD9
:100AD000D5F80490494600F0E5FD8346206809906A
:100AE0000146019800F0DEFD2968059100F088FDBF
:100AF00082460999029800F0D5FD059900F0D2FDD3
:100B000080460F99009800F0CDFD494600F0CAFDDF
:100B10000B900F99039800F0C5FD494600F070FD59
:100B20000C900999019800F06BFD059900F0BAFD51
:100B300081460999029800F063FD059900F060FD77
:100B400038606168009800F05BFD696800F058FD4E
:100B500078600A98D0E9007000905846394600F055
:100B6000A7FD10905046009900F0A2FD0F9050464E
:100B7000394600F09DFD07465846009900F098FD63
:100B80008246DDE90F1000F03BFD206051463846FB
:100B900000F088FD60600D98D0E90047404621468E
:100BA00000F086FD834639460B9800F081FD8246B1
:100BB00021460B9800F07CFD04464046394600F083
:100BC00077FD07465146584600F01AFD3060394619
:100BD000204600F067FD70600E98D0E9004621467F
:100BE0000C9800F065FD80464846314600F060FDF7
:100BF00007464846214600F05BFD044631460C9806
:100C000000F056FD06463946404600F0F9FC2860E3
:100C10003146204600F046FD686027980423069977
:100C200042681E9800F0B0F827980423069942689D
:100C30001D9800F0A9F8279804230699426818988F
:100C400000F0A2F827980699042342681A9829B060
:100C5000BDE8F04F00F098B82DE9F04105889846BE
:100C600017460C460646012A18D1201DB5B1083892
:100C700015F0010F04D050F8081F81F00041016009
:100C800069080BD050F8082F491E82F0004240F846
:100C9000082B026882F000420260F3D1B5F5807F34
:100CA0001BD008DC102D13D0202D16D0402D19D0CC
:100CB000802D0DD01CE0B5F5007F13D0B5F5806F09
:100CC00006D0B5F5006F08D0B5F5805F0AD00FE00B
:100CD00021463046FFF73EFB0AE021463046FFF74B
:100CE00065FC05E0294601232046726800F04CF8B7
:100CF000B8F1000F04D0B1892046B268FFF718FAA6
:100D0000012F18BFBDE8F081284600F0D2FE014651
:100D10004FF07E5000F0FEFC0646002D08BFBDE8F7
:100D2000F081083C15F0010F0CD03146A06800F0AE
:100D3000BFFCA060E068314680F0004000F0B8FCE5
:100D4000E06008346D0808BFBDE8F0813146A06856
:100D500000F0AEFCA060E068314680F0004000F09A
:100D6000A7FCE0603146206900F0A2FC20616069C8
:100D7000314680F0004000F09BFC606110346D1E35
:100D8000E4D1BDE8F08100002DE9FF4FB3B0044687
:100D9000349D2895ED08002606EB050A0AEB0509A7
:100DA00009EB050808EB050B0BEB05004719229032
:100DB00078192A9054F83B00039054F836000290BA
:100DC000039900F01DFC0090DDE9020100F06AFCCF
:100DD0000990229854F83000039054F83A00029099
:100DE000039900F00DFC0590DDE9020100F05AFCCA
:100DF000089054F83700039054F839000290039992
:100E000000F0FEFB1590DDE9020100F04BFC1490B0
:100E10002A9854F83000049054F83800039004994C
:100E200000F0EEFB0290DDE9030100F03BFC1390C3
:100E30001599009800F036FC04901599009800F080
:100E4000DFFB00900299059800F02CFC15900299A8
:100E5000059800F0D5FB01460590009800F0D0FB06
:100E600044F836000599009800F01CFC44F83B005B
:100E700004EBCB000D90406804EBC60B0390DBF84D
:100E800004000290039900F0BBFB0090DDE9020131
:100E900000F008FC0690229804EBC0001690406811
:100EA000039004EBCA000E9040680290039900F092
:100EB000A7FB0590DDE9020100F0F4FB079004EBCD
:100EC000C7001A904068039004EBC900199040686D
:100ED0000290039900F094FB1090DDE9020100F00C
:100EE000E1FB0F902A9804EBC00018904068039033
:100EF00004EBC800179040680B90039900F080FB4A
:100F0000029003990B9800F0CDFB12901099009875
:100F100000F0C8FB03901099009800F071FB00905E
:100F20000299059800F0BEFB10900299059800F018
:100F300067FB01460590009800F062FBCBF80400C7
:100F40000599009800F0AEFB01460D98416010999C
:100F5000049800F055FB44F839001099049800F00B
:100F6000A1FB44F837001599039800F09BFB01465C
:100F7000199841601599039800F042FB01461A98B0
:100F800041601399089800F08DFBFE4F394600F040
:100F90008FFB81461399089800F032FB394600F028
:100FA00087FB08901299079800F07CFB394600F007
:100FB0007FFB83461299079800F022FB394600F028
:100FC00077FB07904946099800F06CFB049049466E
:100FD000099800F015FB09900899149800F062FB3D
:100FE00013900899149800F00BFB1490594606983A
:100FF00000F058FB03905946069800F001FB06905C
:1010000007990F9800F04EFB814607990F9800F062
:10101000F7FA83460146099800F0F2FA44F83A00DC
:101020005946099800F03EFB01462A9844F83010D2
:101030004946049800F0E4FA0146229844F830103A
:101040004946049800F02EFB44F83800149906989D
:1010500000F028FB01460E9841601499069800F0B4
:10106000CFFA0146189841601399039800F01AFBD3
:101070000146169841601399039800F0C1FA0146A1
:10108000179841602898064434988642FFF484AE4D
:10109000082D3CBF37B0BDE8F08F00201D90012027
:1010A0001B9036991D98359F08441D90DDF874807B
:1010B0004200161857F838700E97359F810001EBE3
:1010C000000C57F832700C97359F0CEB0003184456
:1010D00057F836702097359F57F831701997359F1C
:1010E00057F83C700B97359F57F833702597359F0D
:1010F00057F830702997359F07EBC8077F68179717
:10110000359F07EBC20207EBC10152681A9207EB49
:10111000C60207EBC00052681E924968189107EB9F
:10112000CC011B9E4968279107EBC30149682391B5
:1011300040681C90771907EB050808EB050909EBD7
:10114000050A0AEB050B0BEB0500219028442A90B9
:1011500054F83A00039054F836000290039900F0D6
:101160004FFA0090DDE9020100F09CFA099054F872
:101170003B00039054F837000290039900F040FAC6
:101180000590DDE9020100F08DFA0890219854F8ED
:101190003000039054F838000290039900F030FAC0
:1011A0001590DDE9020100F07DFA14902A9854F8B8
:1011B0003000049054F839000390049900F020FAAC
:1011C0000290DDE9030100F06DFA13901599009883
:1011D00000F068FA04901599009800F011FA009058
:1011E0000299059800F05EFA15900299059800F0B2
:1011F00007FA01460590009800F002FA44F836001C
:101200000599009800F04EFA059004EBCA002B9067
:101210004068039004EBC600169040680090039964
:1012200000F0EEF902900399009800F03BFA069066
:1012300004EBCB002D904068039004EBC7002C908A
:1012400040680090039900F0DBF90D900399009835
:1012500000F028FA0790219804EBC0002F90406816
:10126000039004EBC8002E9040680090039900F0B2
:10127000C7F910900399009800F014FA0F902A987B
:1012800004EBC00030904068129004EBC90031902C
:1012900040680390129900F0B3F9009012990398F6
:1012A00000F000FA12901099029800F0FBF90390F8
:1012B0001099029800F0A4F9029000990D9800F09E
:1012C000F1F9109000990D9800F09AF90D9010998D
:1012D000049800F095F900901099049800F0E2F954
:1012E00004900D99029800F08BF901461698416020
:1012F0000D99029800F0D6F90D901599039800F019
:10130000D1F902901599039800F07AF903900599A4
:10131000199800F0CDF916900D99189800F0C8F9B9
:1013200015900D99199800F0C3F90D90059918982A
:1013300000F0BEF90590DDE9151000F061F944F800
:101340003A0005990D9800F0ADF901462B984160DF
:1013500000990C9800F0ACF9169002991A9800F0D8
:10136000A7F9824602990C9800F0A2F90D90009915
:101370001A9800F09DF905905146169800F040F932
:1013800002E00000F304353F44F8380005990D9859
:1013900000F088F901462E9841600499259800F0E4
:1013A00087F982460399239800F082F980460399D1
:1013B000259800F07DF90D900499239800F078F9B4
:1013C00005904146504600F01BF90146219844F82B
:1013D000301005990D9800F065F901462F9841608D
:1013E0001399089800F05EF9844900F061F980468D
:1013F0001399089800F004F9804900F059F98246E1
:101400001299079800F04EF97C4900F051F90290CA
:101410001299079800F0F4F8784900F049F907901C
:101420004146099800F03EF904904146099800F0C1
:10143000E7F809905146149800F034F9139051469A
:10144000149800F0DDF814900299069800F02AF93B
:1014500003900299069800F0D3F8069007990F9828
:1014600000F020F9824607990F9800F0C9F88046ED
:101470000146099800F0C4F800904146099800F030
:1014800011F909905146049800F0BAF808905146B5
:10149000049800F007F904901499069800F002F9F6
:1014A00080461499069800F0ABF8069013990398BB
:1014B00000F0F8F807901399039800F0A1F8039052
:1014C00000990E9800F0F4F816904146179800F035
:1014D000EFF8824641460E9800F0EAF80D90009928
:1014E000179800F0E5F880465146169800F088F805
:1014F00044F8370041460D9800F0D4F801462C9886
:1015000041600999299800F0D3F8824606991C9801
:1015100000F0CEF880460699299800F0C9F80D90A1
:1015200009991C9800F0C4F807464146504600F05F
:1015300067F801462A9844F8301039460D9800F0B3
:10154000B1F801463098416008990B9800F0B0F866
:1015500080460799279800F0ABF8824607990B98C8
:1015600000F0A6F80D900899279800F0A1F807461A
:101570005146404600F044F844F83B0039460D9887
:1015800000F090F801462D9841600499209800F0F1
:101590008FF8834603991E9800F08AF882460399D3
:1015A000209800F085F8804604991E9800F080F895
:1015B00007465146584600F023F844F839003946AA
:1015C000404600F06FF80146319841602898064483
:1015D00034988642FFF4AEAD1B98401C1B908542A8
:1015E0003FF65FAD36984FF6FF7101EAC0003690C6
:1015F000072D3FF6CEAB37B0BDE8F08FF304353F93
:10160000F0B480EA0102D40F4200B2EB410F02D2E3
:101610000246084611464A0042D0C30DDDB2C1F36E
:10162000C752AD1A202D35DAC1F3160141F400027C
:1016300004B15242C5F1200602FA06F12A411044D3
:10164000B3EBD05F23D0C4B1012DA0EBC35009DCB4
:10165000F0BC4FF0004202EAC352DBB200F50000DA
:1016600000F0F0BA400000F1807000EBC350A0F130
:10167000807040EAD170490009E0490841EAC07130
:10168000A0EBC35000F50000400800EBC350F0BCD5
:1016900000F0CFBA6142012202EB4101001BF6E7E4
:1016A000F0BC704781F00041AAE780F00040A7E756
:1016B00080EA010210B502F00043400022D04A0047
:1016C0001FD0010E01EB1261C0F35600C2F35602A7
:1016D00040F4000042F40002A0FB022000047F3925
:1016E000140400D0401C50EA124001D44000491EAE
:1016F000C2B20C0604EBD010401C4008802A02D075
:1017000003E0002010BD20F00100002900DA0020D5
:10171000184310BD30B480EA010202F0004530F0F9
:10172000004221F0004013D090B1C30DD40DC2F39C
:101730001601C0F31600E41A41F4000140F400025F
:101740007D34914201D3641C00E04900002C02DA90
:1017500030BC002070474FF400000023914201D3B9
:10176000891A034340084FEA4101F7D151B1914230
:1017700002D14FF0004105E002D24FF0010101E03B
:101780006FF0010103EBC450284430BC00F051BAA3
:101790002DE9FE4F804681EA0300C00F0C46009001
:1017A00021F0004123F00045B8EB0200A94105D229
:1017B0004046214690461C460B46024623F0004018
:1017C000104347D0270DC7F30A00C3F30A51029014
:1017D000401A019040286BDAC3F3130040F4801BD9
:1017E0000098924620B10023D2EB030A63EB0B0B67
:1017F00001985946C0F14002504600F0E9F906460A
:101800000D4650465946019A00F001FA10EB0800C7
:101810006141002487EA115284EAE7731A4340D0F9
:10182000009A62B3019A012A4FEA075215DC001BA5
:1018300061EB02014FF0004202EA0752CDE900429B
:10184000001C41F5801132462B4600F067FA03B0C8
:10185000BDE8F08F40462146F9E7001B61EB02012D
:10186000001C41F5801300185B412018A2F50017F9
:1018700047EB030140EAD570B6196D4111E06D08E0
:101880004FEA360645EAC0754FEA0752001B61EB86
:101890000201001C41F5801149084FEA300000198F
:1018A000514132462B4603B0BDE8F04F00F027BA55
:1018B0000098012240000023D0EB020263EBE073AA
:1018C000009821464FEAE074B8EB000061EB040198
:1018D000E9E783F000435BE781F0004158E72DE939
:1018E000FE4F81EA030404F0004421F0004100941B
:1018F0004FF0000B23F0004350EA01045ED052EA9F
:1019000003045BD0C3F30A54C1F30A552C44A4F278
:10191000F3340194A0FB0254C1F3130141F480118C
:10192000C3F3130343F4801301FB024400FB034E93
:10193000840A970A44EA815447EA8357A4FB07685C
:1019400002958D0A05FB07854FEA932C04FB0C5486
:101950002705029D4FEA065847EA1637B5EB0805FA
:101960006EEB070C870E920E47EA811742EA83124C
:10197000A7FB0201B6EB0B0164EB00042B0D43EA5D
:101980000C335E1844EB1C50DA465146E7FB02016B
:10199000C5F313044FEA0B3343EA14534FEA0432FE
:1019A000019C43EA0603A4F10C040294009CCDE9D7
:1019B00000B400F0B3F903B0BDE8F08F0020014699
:1019C000F9E72DE9F04D81EA030404F0004B21F022
:1019D000004514464FF0000A23F0004150EA05028A
:1019E00020D054EA01021DD0C5F30A570246C5F3C0
:1019F0001303C1F31300C1F30A5640F4801543F4F6
:101A00008013A7EB0608101BD64608F2FD3873EBCF
:101A1000050002D308F1010801E092185B41B8F11A
:101A2000000F03DA00200146BDE8F08D00204FF4DE
:101A30008011064684460EE0171B73EB050705D39D
:101A4000121B63EB050306434CEA010C49084FEAFD
:101A5000300092185B4150EA0107EDD152EA0300D1
:101A600012D082EA040083EA0501084305D0101B66
:101A7000AB4106D20122002306E000224FF00043D2
:101A800002E06FF0010253101AEB06004CEB085114
:101A900010EB0A0041EB0B01BDE8F04D00F02FB94F
:101AA000C10F80EAE0700844CA079623002100F0C5
:101AB000C9B896230022114600F0C4B800F00042D5
:101AC00020F00040C10DC0F3160040F400007F2953
:101AD00001DA00207047962903DCC1F19601C84065
:101AE00001E096398840002AF4D04042704720F047
:101AF0000040C10DC0F3160040F400007F2901DA58
:101B000000207047962903DCC1F19601C840704758
:101B1000963988407047C1F30A5210B5C1F31301DA
:101B200040F2FF3341F480119A4201DA002010BDE7
:101B300040F233439A42A2F2334203DC524200F0B5
:101B400056F810BD904010BD00F0004230F000404B
:101B50000AD0C10D01F56071C0F3160042EA0151CF
:101B6000C20840071143704700200146704701F04A
:101B7000004330B421F0004150EA010206D00A0DC2
:101B8000A2F56072C1F31301002A02DC30BC002010
:101B90007047440F44EAC104C100E01830BC00EBB8
:101BA000C25000F046B80000002801DBC0F1004040
:101BB000002901DBC1F1004181427047002801DBAF
:101BC000C0F10040002901DBC1F1004188427047AB
:101BD000202A04DB203A00FA02F1002070479140ED
:101BE000C2F1200320FA03F3194390407047202AE2
:101BF00004DB203A21FA02F00021704721FA02F3B7
:101C0000D040C2F120029140084319467047202A73
:101C100006DBCB17203A41FA02F043EAE07306E014
:101C200041FA02F3D040C2F1200291400843194624
:101C300070470029A8BF7047401C490008BF20F02A
:101C40000100704710B4B0FA80FC00FA0CF050EAC2
:101C5000010404BF10BC704749B1CCF1200421FA43
:101C600004F411FA0CF118BF012121430843A3EB3E
:101C70000C01CB1D4FEA00614FEA102042BF00204B
:101C800010BC704700EBC35010440029A4BF10BC27
:101C90007047401C490008BF20F0010010BC70478D
:101CA000F0B4002802DCF0BC00207047C0F3C7513C
:101CB000C0F3160040F40000CA0701D14000491EDD
:101CC0003F2202EB6105002211464FF4000626FA7E
:101CD00001F31344D418844201D8001B1A46400073
:101CE000491C1729F3DD5100814202D24FF0FF3128
:101CF00000E0002102EBC550F0BCFFF79ABF10B521
:101D0000141E73F1000408DA401C41F1000192181E
:101D10005B411A4301D120F0010010BD2DE9F04DC7
:101D200092469B4611B1B1FA81F202E0B0FA80F21C
:101D300020329046FFF74CFF04460F4640EA0A0067
:101D400041EA0B0153465A46084313D0114653EA61
:101D5000010019D0C8F140025046FFF748FF054680
:101D60000E46504659464246FFF732FF084305D01B
:101D7000012004E020463946BDE8F08D00200543EF
:101D800046EAE0762C4337430A986305E40AA0EB61
:101D900008000022FD0A44EA47540A3002D5002018
:101DA0000146E9E7010510196941DDE90845001917
:101DB0006941BDE8F04DA2E72DE9F04D00231A4638
:101DC0001B1A8A4103DB00200146BDE8F08DC1F3F8
:101DD0000A52C1F3130141F480154FF0000BD107F3
:101DE00002D100186D41521E0027044640F2FF1137
:101DF000384601EB620A3E468046024600204FF418
:101E00008011FFF7F4FEC2197141BB1846EB0100C7
:101E1000B4EB030C75EB000C04D3E41A65EB00057E
:101E200017460E46241908F101006D4180463428FA
:101E3000E3DDF91946EB0600091BA84103D24FF078
:101E4000FF32134601E0002213461BEB070046EB6E
:101E50000A51BDE8F04DFFF752BF000030B5041E37
:101E600071F1000404DB4FF00044404264EB0101D7
:101E7000141E73F1000405DB1C464FF00043524270
:101E800063EB04038B4208BF824230BD064C074D12
:101E900006E0E06840F0010394E80700984710343A
:101EA000AC42F6D3FEF7A8F9D0520008F052000871
:101EB00070B521F0004303430CD0C1F30A55002450
:101EC000D5EB040564EB0403D617AD1AB34102DB6E
:101ED0000020014670BD201841EB025170BD00008A
:101EE0002DE9F04707460FB9BDE8F087DFF86C80B1
:101EF000B8FBF7F500242BE0601CA84200D9F3E7FB
:101F0000601CB5FBF0F6B6F5803F00D91EE0601C02
:101F100000FB06FAAA4518D1701E1FFA80F90021AD
:101F20000F4800F02DFF49460D4800F041FF012207
:101F300021460B4800F030FF601C09F101014843C5
:101F4000B8FBF0F007490860CEE700BF601C84B220
:101F50004FF6FF708442CFDB00BFC5E700A24A0402
:101F6000000400401800002021B1826842F0010204
:101F7000826003E0826822F001028260704721B132
:101F8000826842F48072826003E0826822F4807288
:101F90008260704710B504461248844208D101217E
:101FA000401500F079FD0021601500F075FD17E087
:101FB0000D48844208D10121001500F06DFD00217B
:101FC000201500F069FD0BE00848844208D101218A
:101FD000C80300F061FD00214FF4004000F05CFDFB
:101FE00010BD00000024014000280140003C0140D9
:101FF00021B1826842F48012826003E0826822F498
:10200000801282607047000008B50121102000F0A6
:1020100033FD0120ADF8000000208DF803000320FF
:102020008DF802006946024800F0B8FB08BD0000C8
:1020300000100140014600208A6802F004020AB143
:10204000012000E000207047014600208A6802F06D
:1020500008020AB1012000E00020704730B50246B6
:102060000020002350680F4C20400D790C6844EA92
:1020700005242043506090680B4C2040D1E9025465
:102080002C434D7944EA450420439060D06A20F403
:1020900070000C7C641EE4B2234340EA0350D0621B
:1020A00030BD0000FFFEF0FFFDF7F1FFF0B5044684
:1020B0000D4600200021092D11DDE068A5F10A067A
:1020C00006EB4607072606FA07F18843A5F10A063C
:1020D00006EB460603FA06F10843E0600CE02069CF
:1020E00005EB4507072606FA07F1884305EB450689
:1020F00003FA06F108432061072A0FDA606B561EC7
:1021000006EB86071F2606FA07F18843561E06EBE4
:10211000860605FA06F10843606322E00D2A0FDA0D
:10212000206BD61F06EB86071F2606FA07F18843A9
:10213000D61F06EB860605FA06F10843206310E079
:10214000E06AA2F10D0606EB86071F2606FA07F1E4
:102150008843A2F10D0606EB860605FA06F1084350
:10216000E062F0BD816841F00801816070470000C5
:1021700010B54FF480710F4800F071FA00210E483D
:1021800000F018FE022000F06DF9042000F06AF95A
:1021900001210A48FFF7E8FE01210848FFF7EFFE9A
:1021A0000121044800F06CF90121034800F0E8FD2A
:1021B00010BD00000800024000040040002401405F
:1021C000816841F0040181607047000010B5002172
:1021D000094800F0D5FD0021074800F0EBFD002183
:1021E000064800F04DF900210548FFF7C8FE002120
:1021F0000348FFF7B9FE10BD00040040080002408C
:10220000002401400EB50121022000F015FC4FF41E
:102210008C70ADF804000020ADF80000ADF80600A9
:10222000ADF802006946044800F0C6FD20210248CE
:1022300000F0B5FD0EBD00000004004000B591B0F7
:10224000FFF7E2FEFFF7DEFF0121084600F0E4FBA6
:10225000454800F021F94548069045480790002080
:1022600008904FF48070099000200A9080200B9015
:1022700040000C9080000D9000200E904FF4005014
:102280000F900020109006A9374800F0CAF90B20E3
:102290008DF8140002208DF8150001208DF816002D
:1022A0008DF8170005A800F067FB022000F0DAF8AF
:1022B000012202212C4800F0ABF9002204212A4817
:1022C00000F0A6F90121480200F0D6FB4FF40040CF
:1022D00000F096FB25484C38FFF75CFE002000908C
:1022E0008DF804008DF805004FF4002002900020C6
:1022F000039001208DF8100069461C484C38FFF708
:10230000ADFE01231A460A2118484C38FFF7CEFECD
:10231000012116484C38FFF727FE14484C38FFF7C8
:1023200021FF00BF11484C38FFF78EFE0028F9D17D
:102330000E484C38FFF744FF00BF0C484C38FFF7FD
:1023400079FE0028F9D1012108484C38FFF750FEEA
:10235000012106484C38FFF712FE0121024800F027
:102360008FF811B000BD0000080002404C2401406D
:102370004800002010B586B004460121082000F076
:102380007BFB0121880400F057FB4FF48060ADF81F
:10239000140003208DF8160018208DF8170005A9E9
:1023A000244800F0FBF94FF40060ADF8140004205D
:1023B0008DF8170005A91F4800F0F0F927208DF8C7
:1023C000000003208DF801008DF8020001208DF837
:1023D0000300684600F0D0FA174800F0BDFD01A8E0
:1023E00000F0D9FE01940020ADF80800ADF80A0015
:1023F000ADF80C00ADF810000C20ADF80E0001A9EE
:102400000E4800F053FE60210C4800F081FD0122CF
:1024100040F22551094800F024FE002240F22661D6
:10242000064800F01EFE0121044800F089FD06B0B8
:1024300010BD0000000C0140003801400048004081
:1024400000BFFEE710B5022000F0CCF838B1FFF76E
:10245000BDFE012002490870022000F003F810BD03
:102460001400002000F0805111B10349086001E020
:102470000249486070470000040402400000024026
:1024800021B1026842F00102026004E002684FF6E6
:10249000FE731A400260704701684FF6FE721140E9
:1024A00001600021016041608160C1604B49884248
:1024B00008D14A490839496841F00F01474A083AAA
:1024C00051608AE045491431884208D143490839AE
:1024D000496841F0F001414A083A51607DE03F49C6
:1024E0002831884208D13D490839496841F4706172
:1024F0003A4A083A516070E038493C31884208D184
:1025000036490839496841F47041344A083A516003
:1025100063E032495031884208D13049083949686E
:1025200041F470212D4A083A516056E02B4964313C
:10253000884208D129490839496841F47001274A7D
:10254000083A516049E025497831884208D1234949
:102550000839496841F07061204A083A51603CE00E
:102560001F49884206D1011F096841F00F01021F6F
:10257000116032E01A491431884208D11849091F04
:10258000096841F0F001164A121F116025E0144954
:102590002831884208D11249091F096841F4706145
:1025A0000F4A121F116018E00D493C31884208D1D2
:1025B0000B49091F096841F47041094A121F116053
:1025C0000BE007495031884207D10549091F0968C6
:1025D00041F47021024A121F116070470800024046
:1025E0000804024001460020002201F0805313B18C
:1025F000054B1A6801E0054B1A6802EA01030BB1AA
:10260000012000E00020704700040240000002406A
:102610001AB103680B43036002E003688B43036055
:10262000704710B50022026847F6F0739A430C6AAF
:102630008B6823430C6923434C6923438C692343F0
:10264000CC6923434C6A23438C6A23431A430260B8
:10265000CB6843600B6883604B68C36010BD41600A
:10266000704770472DE9F0410027002405E04448F9
:1026700030F914000744601C84B2FF2CF7DD3846A3
:10268000FFF717FA06464FF08741FFF743F8054674
:102690003C480078C0B9002413E0394931F91400EE
:1026A000FFF7FEF906462946FEF7FCFF6100364AB1
:1026B00042F8210000216000401C42F82010601CFC
:1026C00084B2FF2CE9DD44E03048007803281ADCAE
:1026D000002415E02A4931F91400FFF7E1F980469A
:1026E0002946FEF7DFFF06466000274941F82060D3
:1026F00000216000401C244A42F82010601C84B273
:10270000FF2CE7DD25E0002421E01D4931F914000C
:10271000FFF7C6F980462946FEF7C4FF0646FFF7D5
:10272000E6F907463846FFF7C4F90646184850F858
:1027300024103046FEF7BCFF6100134A42F8210026
:1027400000216000401C42F82010601C84B2FF2C65
:10275000DBDD012300220C490E48FEF77DFA4FF421
:1027600080720D490848FDF761FD0B4908684FF07C
:102770008041FEF7CFFF08490860BDE8F081000006
:102780004800002040000020EC0200203000002023
:10279000B0420008B0460008EC1200202DE9F041DC
:1027A000024600250026002000230024002791F87F
:1027B00003C00CF00F0591F803C00CF0100CBCF135
:1027C000000F03D091F802C04CEA050591F800C053
:1027D000BCF1000F31D0146800202BE04FF0010C49
:1027E0000CFA00F3B1F800C00CEA03069E4220D1B7
:1027F00083004FF00F0C0CFA03F7BC4305FA03FCFF
:102800004CEA040491F803C0BCF1280F06D14FF044
:10281000010C0CFA00FCC2F814C00AE091F803C0E5
:10282000BCF1480F05D14FF0010C0CFA00FCC2F8C6
:1028300010C0401C0828D1D31460B1F800C0BCF10E
:10284000FF0F34DD546800202EE000F1080C4FF03B
:10285000010808FA0CF3B1F800C00CEA03069E4226
:1028600021D183004FF00F0C0CFA03F7BC4305FA9B
:1028700003FC4CEA040491F803C0BCF1280F05D115
:1028800000F1080C08FA0CF8C2F8148091F803C0A3
:10289000BCF1480F07D100F1080C4FF0010808FA0D
:1028A0000CF8C2F81080401C0828CED35460BDE854
:1028B000F08100BFFEE700002DE9F041242024490B
:1028C0000870232081F83100224923480068FEF770
:1028D000EFFE0546FFF7F2F81D49C1F801001D495A
:1028E0001E480068FEF7E4FE0546FFF7E7F81849C2
:1028F000C1F80500002426E0194951F824001549C3
:10290000FEF7D6FE0546FFF7D9F81149093101EB6C
:1029100084010860134951F824001349FEF7FAFEB8
:1029200007461249FEF7C4FE06460A49FEF7C0FEF6
:102930000546FFF7C3F806490931621D01EB820124
:102940000860601CC4B2052CD6DBBDE8F081000035
:10295000B802002000401C4634000020380000204F
:10296000700200205C020020DA0F4940000034436E
:1029700000BFFEE77047000070B5002100230F2262
:10298000C47804B3154C246804F4E064C4F5E0642E
:10299000210AC1F10403CA40447804FA03F184789F
:1029A0001440214309010E4C0678A155047804F027
:1029B0001F050124AC4005786D11AD0005F1E0253F
:1029C000C5F8004109E0047804F01F050124AC407B
:1029D000044D0678761145F8264070BD0CED00E0F8
:1029E00000E400E080E100E002490143024A116096
:1029F000704700000000FA050CED00E07047000091
:102A000001460020034A506820F4404008435060CB
:102A1000704700000010024029B1064A5269024383
:102A2000044B5A6104E0034A52698243014B5A61E4
:102A3000704700000010024029B1064AD2690243E3
:102A4000044BDA6104E0034AD2698243014BDA6144
:102A5000704700000010024029B1064A1269024383
:102A6000044B1A6104E0034A12698243014B1A6164
:102A7000704700000010024029B1064A92690243E3
:102A8000044B9A6104E0034A92698243014B9A61C4
:102A9000704700000010024029B1064AD268024384
:102AA000044BDA6004E0034AD2688243014BDA60E7
:102AB000704700000010024030B5002100220024C1
:102AC00000232D4D6D6805F00C0121B1042905D0BE
:102AD000082923D105E0294D056022E0274D056036
:102AE0001FE0254D6D6805F47012234D6D6805F4E7
:102AF0008034022505EB92421CB9214D55430560F7
:102B00000BE01D4D6D6805F400351DB11C4D55439E
:102B1000056002E0194D5543056002E0174D056060
:102B200000BF00BF144D6D6805F0F0010909154D97
:102B30006B5C0568DD4045600F4D6D6805F4E06134
:102B4000090A104D6B5C4568DD4085600A4D6D6873
:102B500005F46051C90A0B4D6B5C4568DD40C560EA
:102B6000054D6D6805F44041890B074D6B5CC568E8
:102B7000B5FBF3F5056130BD0010024000127A008C
:102B800000093D00000000201000002070472DE9E2
:102B9000F04705460F4690461E4601203080D5F886
:102BA000049001240AE055F824004946FFF706F88E
:102BB00002D255F824903480601CC4B2BC42F2DBCF
:102BC000C8F80090BDE8F0872DE9F0470646884632
:102BD00015461F46DDF82090A9F8005056F825004C
:102BE00038600A2D14DDE81EC4B20CE056F824004B
:102BF0003968FEF7E3FF04D256F824003860A9F8DC
:102C00000040601CC4B2E81C844201DC4445EDDB9A
:102C1000BDE8F08770B5054601200549087000241D
:102C200003E0285D00F064F9641C322CF9D370BD18
:102C30003300002010B500F001F810BD0CB50020E5
:102C4000019000903348006840F4803031490860BA
:102C500000BF3048006800F4003000900198401C2C
:102C60000190009818B90198B0F5A06FF1D12948EA
:102C7000006800F4003010B10120009001E0002055
:102C800000900098012843D12348006840F01000CC
:102C9000214908600846006820F0030008600846E3
:102CA000006840F0020008601A484068194948600E
:102CB0000846406848600846406840F480604860C4
:102CC0000846406820F47C1048600846406840F49C
:102CD000E81048600846006840F08070086000BF57
:102CE0000C48006800F000700028F9D009484068DE
:102CF00020F00300074948600846406840F00200A1
:102D0000486000BF0348406800F00C000828F9D173
:102D10000CBD00000010024000200240704700007F
:102D200010B51348006840F00100114908600846DA
:102D30004068104908400E494860084600680E493E
:102D400008400B4908600846006820F480200860AD
:102D50000846406820F4FE0048604FF41F00886079
:102D6000FFF768FF4FF000600449086010BD0000E5
:102D7000001002400000FFF8FFFFF6FE08ED00E043
:102D800021B1028842F00102028004E002884FF67D
:102D9000FE731A40028070470185828270478288E4
:102DA0004FF68F731A40828082880A438280704770
:102DB0008185704781847047002202881D4B9842AC
:102DC0000ED01D4B98420BD0B0F1804F08D01B4B5A
:102DD000984205D01A4B984202D01A4B984204D11F
:102DE0004FF68F731A404B881A43174B984207D0FF
:102DF000164B984204D04FF6FF431A40CB881A4333
:102E000002808B8883850B8803850A4B98420BD000
:102E1000094B984208D00E4B984205D00D4B984272
:102E200002D00D4B984201D10B7A03860123838295
:102E300070470000002C01400034014000040040B5
:102E400000080040000C004000100040001400404A
:102E500000400140004401400048014010B540F2EC
:102E600025511F4800F0D3F8002837D01C4800F047
:102E700089F9C4B21B48007820B101280BD0022880
:102E800025D118E0242C05D1012016490870002016
:102E9000154908701BE0144801780078401C124A5C
:102EA00010701248445410460078052802DB0220B6
:102EB0000C4908700BE0232C05D101200B49487107
:102EC000084600F053FF00200649087000BF00BF0D
:102ED00040F22551024800F024F800BF10BD000068
:102EE000004800402700002026000020200000208D
:102EF00010B504462146054800F049F900BF80217D
:102F0000024800F077F80028F9D010BD00480040D2
:102F100001F40072B2F5007F00D100BFCA43028005
:102F2000704710B50022002340F66A14A14200D178
:102F300000BF0A1201249440A3B2DC43048010BDF8
:102F400021B1828942F40052828104E082894DF6E7
:102F5000FF731A408281704710B5044620488442AE
:102F600009D101218803FFF797FD00214FF480402C
:102F7000FFF792FD32E01B48844209D10121480449
:102F8000FFF76AFD00214FF40030FFF765FD25E0F3
:102F90001548844209D101218804FFF75DFD002115
:102FA0004FF48020FFF758FD18E01048844209D103
:102FB0000121C804FFF750FD00214FF40020FFF766
:102FC0004BFD0BE00A48844208D101210805FFF7B8
:102FD00043FD00214FF48010FFF73EFD10BD0000BF
:102FE000003801400044004000480040004C0040D0
:102FF0000050004002460020B1F5007F00D100BF24
:1030000013880B400BB1012000E00020704770B521
:103010000246002400230025002040F66A16B14233
:1030200000D100BFC1F3421501F01F03012606FACB
:1030300003F3012D02D19689334006E0022D02D11F
:10304000168A334001E0968A33400C12012606FAB4
:1030500004F41688344013B10CB1012000E00020C4
:1030600070BDF0B50346002400260025002040F680
:103070006A17B94200D100BF1846C1F3421401F0EB
:103080001F06012707FA06F5012C01D10C3004E0D8
:10309000022C01D1103000E014301AB107682F4320
:1030A000076002E00768AF430760F0BD2DE9F04715
:1030B00086B005460E460024A24600BFA146002762
:1030C000B08900B100BF2F462C8A4CF6FF70044037
:1030D000F08804432C82AC894EF6F3100440B0888B
:1030E00031890843718908430443AC81AC8A4FF6A7
:1030F000FF400440B0890443AC8201A8FFF7DCFC28
:103100001F48874202D1DDF810A001E0DDF80CA0D5
:10311000A88900F4004040B10AEBCA0000EB0A1095
:1031200031684900B0FBF1F807E00AEBCA0000EB98
:103130000A1031688900B0FBF1F86420B8FBF0F0A8
:1031400004012009642101FB1089A88900F40040D2
:1031500040B1322000EBC900B0FBF1F000F00700F5
:10316000044308E0322000EB09106421B0FBF1F0C9
:1031700000F00F0004432C8106B0BDE8F08700008A
:103180000038014001468888C0F308007047C1F349
:103190000802828070474FF416510160002181803F
:1031A000C18001810C21418100218181704700BFD4
:1031B000FEE7490050EAC12018BF04204A0D18BF9D
:1031C00040F0010040F2FF72B2EB515F08BF40F0E7
:1031D0000200012808BF052070472DE9F0414F1E6D
:1031E00000EBC7010446D1E9000115461E4637F041
:1031F00006020DD02A463346FEF771FB7F1E04EB14
:10320000C703D3E90023FEF7C3FA37F00602F1D172
:10321000022F25D0042F13D0062F18BFBDE8F08150
:103220002A463346FEF75BFBD4E90A23FEF7B0FAE1
:103230002A463346FEF753FBD4E90823FEF7A8FAE3
:103240002A463346FEF74BFBD4E90623FEF7A0FAE5
:103250002A463346FEF743FBD4E90423FEF798FAE7
:103260002A463346FEF73BFBD4E90223FEF790FAE9
:103270002A463346FEF733FBD4E90023BDE8F0418C
:10328000FEF786BA0122FEF713BEFEF781BA0000F0
:10329000024A00201107FEF70BBE000001FDFFFFF0
:1032A00002E008C8121F08C1002AFAD1704770470F
:1032B000002001E001C1121F002AFBD1704700006D
:1032C0000149086070470000440000202DE9F84FD4
:1032D00004460D4621F0004000917349814211DC03
:1032E0007249884201DC06D12CB120462946BDE84E
:1032F000F84FFFF7C7BF6E48002DCCBF6D496E4930
:10330000BDE8F88F6D49814211DD6D498142D8BF1A
:103310004FF0FF366DDD20462946FFF74AFF0428AF
:1033200008BFFFF7B5FF20462946BDE8F88F65497D
:10333000654F25F00045814233DD6449814219DD46
:10334000002632464FF0804320462946FEF720FAF9
:1033500080468A46012220462946FEF7A9FD002222
:103360003B46FEF7B6FA42465346FEF72AFB0446B2
:103370000D463EE001260022BA463B46204629463D
:10338000FEF706FA80460F4600225346204629469D
:10339000FEF79FFA42463B46FEF713FB04460D46F6
:1033A00027E04B4981421BDDDFF828A102260022DD
:1033B000534620462946FEF792FA00223B46FEF786
:1033C000E7F980460F460022534620462946FEF77D
:1033D00080FA42463B46FEF7F4FA04460D4608E002
:1033E000032622462B4600203B49FEF7EAFA044614
:1033F0000D4622462B4610461946FEF770FA8B46BC
:10340000824602460B46FEF76AFA074602463348F2
:1034100088460B4606217844FFF7DFFE52465B469E
:10342000FEF75DFA82462E488B463A464346052112
:103430007844FFF7D2FE3A464346FEF750FA02467A
:103440000B46002E504659460CDAFEF7A1F92246EB
:103450002B46FEF744FA01B022462B46BDE8F04F5A
:10346000FEF73ABAFEF794F922462B46FEF737FAF2
:103470001C4A7A4402EBC603D3E90023FEF729FA7B
:1034800022462B46FEF725FA174A7A4402EBC6037A
:10349000D3E90023FEF720FA009A002AB8BF81F092
:1034A0000041BDE8F88F0000000010440000F07FEC
:1034B000182D4454FB21F93FFB21F9BF0000DC3FEC
:1034C0000000203E0000F33F0000F03F0000E63F18
:1034D000008003400000F83F0000F0BF7E1E0000A7
:1034E0003C1E0000DA1D0000A21D00002DE9F04D79
:1034F0009446CCF1000423F000464CEA0404594FF2
:1035000046EAD4749A46884621F00042BC4206D866
:10351000454240EA050442EAD474BC4204D9BDE8FD
:10352000F04D6246FFF7B1BEAAF14055A5F17F65A7
:1035300055EA0C040BD0022404EAAA744A4DDFF8C1
:103540002CE144EAD87452EA000B04D00CE0BDE848
:10355000F04DFFF7BBBE002C14BF012CBDE8F08D71
:10356000022C30D0032C32D056EA0C0B0AD0BE42CB
:1035700020D1BA4209D126F0804622F0804233465B
:10358000114617E000291ADB25E0DFF8E4B0FB4420
:10359000002C04BFDBE90001BDE8F08D012C02BF67
:1035A000DBE9000181F00041BDE8F08D022C0AD07A
:1035B000032C0CD0BA4212D1B8F1000F0BDA2A4812
:1035C0002C49BDE8F08D28462B49BDE8F08D2846F2
:1035D0007146BDE8F08D24482849BDE8F08D921B66
:1035E00012153C2AC4BF204F244E10DCBAF1000F44
:1035F000BEBF12F13C0F00273E4608DB6246FEF7D5
:10360000E0F921F00041FFF761FE07460E4694B154
:10361000012C08BF86F000460DD0194A194B022C28
:103620003846314615D0FEF754F92A46BDE8F04D2C
:10363000114BFEF74EB90022134638463146FEF7CD
:103640000DFC04BF0220FFF73BFE38463146BDE8C3
:10365000F08DFEF73EF92A46BDE8F04D064BFEF729
:103660003BB900000000F07F182D4454FB2109C035
:10367000361D0000FB21F9BFFB210940FB21F93F6A
:10368000075C143326A6A13C94B04FF4A060FFF76A
:10369000ABF9FEF7D3FD4FF4165000F0BBFB4FF42F
:1036A0001650FEF767FE0121FE48FFF769FB012077
:1036B000FD4908703EE3FC48007820B9FEF758FD4C
:1036C0000120F9490870F948007801287ED1FEF7F9
:1036D000C9FFF74BF74A8021F748FFF758FAF74838
:1036E0000078022865DCF2480088F34951F8200090
:1036F000014608904FF08040FDF7DAFF0990EC4852
:103700000088401CEC4951F82000014608900998B7
:10371000FDF7C8FF0A90E6480088401EE64951F8C8
:103720002000014609900A98FDF7BCFF0B90FEF7B8
:103730000BFACDE90E01DE480088401EDE4951F843
:1037400020000890DA480088401C51F820000790BB
:103750000899FDF7A7FF0990FEF7F6F90022D84B6C
:10376000CDE90A01FEF7BBF8CDE90C01DDE90E2336
:10377000FEF727F9CDE91001FEF7F9F91390D148CA
:103780000068FEF796F91190C94800880E90FEF780
:1037900090F90F901399FDF733FF10901199FDF7F1
:1037A00087FF4FF087411290FDF7B4FFC6490860CC
:1037B00000BFC2480078012854DC0021C2480068DC
:1037C000FEF7F2F94ED0C048016800E0B1E24FF0D8
:1037D0008740FDF76DFF4FF084411290FDF79AFF8F
:1037E000BA491390FEF7E0F921D8B74801684FF0C5
:1037F0008740FDF75DFF4FF084411190FDF78AFF90
:103800001290FEF774F91390FEF76AFBAE48016858
:103810004FF08740FDF74CFF4FF084411290FDF7C9
:1038200079FF1390FEF763F9A64908601AE0A648ED
:1038300001684FF08240FDF73BFFA5491190FDF76D
:1038400069FF1290FEF753F91390FEF749FB9E486B
:1038500001684FF08240FDF72BFF1390FEF747F908
:103860009849086095480078022853D19648016825
:103870004FF08740FDF71CFF4FF082411290FDF79B
:1038800049FF92491390FEF78FF921D88E480168BD
:103890004FF08740FDF70CFF4FF083411190FDF78B
:1038A00039FF1290FEF723F91390FEF719FB8648B3
:1038B00001684FF08740FDF7FBFE4FF08341129007
:1038C000FDF728FF1390FEF712F97E49086021E00A
:1038D0007D480068FEF738F900227E4BCDE90C01E7
:1038E000FDF7FDFF00227C4BCDE90E01FEF769F8E4
:1038F000CDE91001FEF70FF91390FEF7F1FA7248C7
:1039000001684FF08340FDF7D3FE1390FEF7EFF808
:103910006C49086069480078032803D0674800783C
:1039200004287DD16248801C0090801E00884FF6DC
:10393000FF7101EA40005F4B1B1D024680210F9082
:103940005D48FFF741F95A48001D0090001F0088AC
:1039500000EB400080B2574B0833024680210F90A5
:103960005548FFF731F95248801D0090801F0088AC
:103970004FF6FF7101EA80004E4B0C330246802166
:103980000F904D48FFF720F949480830009008385B
:10399000008800EB800080B2464B10330246802145
:1039A0000F904548FFF710F900201390ACE0404914
:1039B000139831F810004000484951F82000099050
:1039C000FEF7C2F8CDE90C013949139831F810001F
:1039D0004000401C414951F820000990FEF7B4F81E
:1039E000CDE90A01DDE90C23FFF780FDCDE90E01E9
:1039F000FEF7BDF83A4A139942F821002C49139872
:103A000031F81000401E2C4951F82000129028492E
:103A1000139831F81000284951F82000119000E067
:103A20001BE12349139831F81000401C224951F83A
:103A3000200010904FF080401199FDF739FE019061
:103A40001299FDF72FFE02901099FDF72BFE0390BF
:103A5000FEF77AF8CDE9060112991098FDF722FEDB
:103A60000190FEF771F80022154BCDE90201FDF738
:103A700036FFCDE90401DDE90623FDF7A2FF4FF093
:103A8000C042184BCDE90801FDF729FFCDE90C0133
:103A90001349139851F820000990FEF755F8CDE925
:103AA0000A0121E000040040310000201400002041
:103AB0008402002048020020EC1200203000002088
:103AC0000000E03F1C000020340000200024F448E7
:103AD000000088410000304000804040EC0200209F
:103AE0005C020020FB210940DDE90C23FDF7F1FE1B
:103AF000CDE90E01FEF73BF88F4A139942F82100F9
:103B00001398401CC0B2139013980528FFF64FAFCE
:103B10004FF07E5189480160894800680F908848BD
:103B200040680E900F99FDF7F5FD84494860844880
:103B300000680F90824880680E900F99FDF7EAFDAB
:103B40007E4988607E4800680F907D48C0680E906E
:103B50000F99FDF7DFFD7949C860794800680F903B
:103B6000774800690E900F99FDF7D4FD73490861FD
:103B70000846006908900846006907900899FDF713
:103B800097FD0A906D48C06806906C48C068059023
:103B90000699FDF78DFD0890684880680490674895
:103BA000806803900499FDF783FD069063484068A0
:103BB00004906248406803900499FDF779FD0590F0
:103BC0000699FDF71DFD07900899FDF719FD09906D
:103BD0000A99FDF715FD0B90FDF7B6FFCDE90C0135
:103BE00000F0DCF8CDE90E01FDF7C1FF5549086092
:103BF000002013902DE05049139851F820005249AD
:103C00000F90139851F820000E900F99FDF7F8FCD3
:103C10004D4A139942F821004849139851F8200061
:103C20004A490F90139851F820000E900F99FDF714
:103C3000E7FC464A139942F821004248016844488B
:103C40000068FDF7DDFC424908601398401CC0B2D3
:103C5000139013980528CEDB00BF3E480078042857
:103C60005DD1002013903FE03749139851F82000B0
:103C70004FF080411090FDF74DFD2F4911901398A2
:103C800051F82000014610901198FDF7B9FC2A4A1E
:103C9000139942F821002D49139851F820004FF054
:103CA00080411090FDF736FD24491190139851F88A
:103CB0002000014610901198FDF7A2FC1F4A1399AD
:103CC00042F821004FF0804121480068FDF722FDB5
:103CD00011901C4801681198FDF792FC1949086081
:103CE0001398401CC0B2139013980528BCDB002029
:103CF00018490870FEF7E0FD174812901298FEF779
:103D000089FF002015490870154908704FF47A3072
:103D10001449086014490860FEF7E2F80AE0002040
:103D20000E4908700E4908700A480078401C09497D
:103D3000087000BFBFE400005C0200207002002099
:103D4000480200203800002090020020A402002039
:103D50003C00002030000020B802002014000020A9
:103D6000310000201C0000201800002010B50022A7
:103D7000002106E0435C302B01D1531CDAB24B1C0E
:103D8000D9B20529F6DB032A02DB0123024C23709A
:103D90000023437110BD0000280000202DE9F041F0
:103DA00006460F46FEF708F8041E0D4618BF012010
:103DB000284320F00040C0F17F6000F1E040C00FD8
:103DC0000ED0301C18BF0120384320F00040C0F155
:103DD0007F6000F1E040C00F04BF0120FFF770FAE0
:103DE00020462946BDE8F08170B50546FDF758FF2D
:103DF000044620F00040C0F1FF40C00F08D025F07D
:103E00000040C0F1FF40C00F04BF0120FFF758FA87
:103E1000204670BD10B586B0044601214804FEF767
:103E20000BFE01210420FEF727FE1F48FFF794F840
:103E30000420ADF8140003208DF8160018208DF82A
:103E4000170005A91948FEF7A9FC0820ADF81400D1
:103E500004208DF8170005A91448FEF79FFC2620C2
:103E60008DF8000003208DF801008DF8020001207C
:103E70008DF803006846FEF77FFD01940020ADF841
:103E80000800ADF80A00ADF80C00ADF810000C20E9
:103E9000ADF80E0001A90448FFF708F90121024816
:103EA000FFF74EF806B010BD004400400008014086
:103EB000EAAD1C39ECA71C3AAD31B03AF58F1C3B8A
:103EC000DC84743B0BF5AF3B9B57EF3B35301C3C20
:103ED0002682453C4E9B733C503A933C2903AF3CB1
:103EE000F323CD3C1198ED3C462D083D0AB31A3D15
:103EF0007E5A2E3DA020433D4302593D0DFC6F3DAF
:103F00003E05843DF094903D30AB9D3DFF45AB3D7B
:103F10004663B93DDE00C83D8A1CD73DFAB3E63D95
:103F2000CBC4F63D44A6033E55240C3E4CDB143E68
:103F3000D2C91D3E8BEE263E1148303EF4D4393EA8
:103F4000C093433EF5824D3E10A1573E84EC613E46
:103F5000BD636C3E2205773E89E7803EF35F863E77
:103F6000F9EA8B3EC387913E7335973E2CF39C3E16
:103F70000DC0A23E329BA83EB783AE3EB378B43E9E
:103F80003E79BA3E6C84C03E5099C63EFEB6CC3EE9
:103F900083DCD23EF108D93E563BDF3EBD72E53EA2
:103FA00035AEEB3EC9ECF13E842DF83E716FFE3E1E
:103FB000CE58023F8879053F6B99083FFDB70B3F0C
:103FC000C4D40E3F46EF113F0A07153F961B183F1A
:103FD000722C1B3F25391E3F3841213F3544243F79
:103FE000A641273F15392A3F0D2A2D3F1D14303F8A
:103FF000D2F6323FBAD1353F66A4383F686E3B3FB8
:10400000522F3E3FB7E6403F2F94433F5037463F45
:10401000B2CF483FF05C4B3FA7DE4D3F7354503F5B
:10402000F4BD523FCD1A553FA06A573F13AD593FDB
:10403000CEE15B3F79085E3FC120603F542A623F7A
:10404000E224643F1D10663FBBEB673F71B7693FD9
:10405000FB726B3F141E6D3F7BB86E3FF141703FAA
:104060003ABA713F1D21733F6176743FD4B9753FF1
:1040700044EB763F810A783F6117793FB9117A3F67
:1040800064F97A3F3ECE7B3F27907C3F013F7D3FE6
:10409000B0DA7D3F1E637E3F36D87E3FE5397F3FF5
:1040A0001C887F3FD0C27F3FF8E97F3F8DFD7F3F77
:1040B0008DFD7F3FF8E97F3FD0C27F3F1C887F3F67
:1040C000E5397F3F36D87E3F1E637E3FB0DA7D3FC5
:1040D000013F7D3F27907C3F3ECE7B3F64F97A3F96
:1040E000B9117A3F6117793F810A783F44EB763FF7
:1040F000D4B9753F6176743F1D21733F3ABA713F61
:10410000F141703F7BB86E3F141E6D3FFB726B3FF9
:1041100071B7693FBBEB673F1D10663FE224643F08
:10412000542A623FC120603F79085E3FCEE15B3F89
:1041300013AD593FA06A573FCD1A553FF4BD523FCA
:104140007354503FA7DE4D3FF05C4B3FB2CF483F2A
:104150005037463F2F94433FB7E6403F522F3E3FF4
:10416000686E3B3F66A4383FBAD1353FD2F6323F46
:104170001D14303F0D2A2D3F15392A3FA641273FF8
:104180003544243F3841213F25391E3F722C1B3FC7
:10419000961B183F0A07153F46EF113FC4D40E3F48
:1041A000FDB70B3F6B99083F8879053FCE58023F1A
:1041B000716FFE3E842DF83EC9ECF13E35AEEB3E0C
:1041C000BD72E53E563BDF3EF108D93E83DCD23E70
:1041D000FEB6CC3E5099C63E6C84C03E3E79BA3E97
:1041E000B378B43EB783AE3E329BA83E0DC0A23E2C
:1041F0002CF39C3E7335973EC387913EF9EA8B3E84
:10420000F35F863E89E7803E2205773EBD636C3EC4
:1042100084EC613E10A1573EF5824D3EC093433E73
:10422000F4D4393E1148303E8BEE263ED2C91D3EB5
:104230004CDB143E55240C3E44A6033ECBC4F63D55
:10424000FAB3E63D8A1CD73DDE00C83D4663B93D62
:10425000FF45AB3D30AB9D3DF094903D3E05843D28
:104260000DFC6F3D4302593DA020433D7E5A2E3D3B
:104270000AB31A3D462D083D1198ED3CF323CD3C81
:104280002903AF3C503A933C4E9B733C2682453CFD
:1042900035301C3C9B57EF3B0BF5AF3BDC84743B4C
:1042A000F58F1C3BAD31B03AECA71C3AEAAD1C3996
:1042B00000000000A13B6538316265395B2B013A93
:1042C0002EFC653A0407B43AA9ED013B8A57313B0D
:1042D000B35F683B8C94933B78EDB63B4B50DE3B31
:1042E00058EA043C1CCA1C3C1FD5363CEC19533C14
:1042F000D9A7713C7C47893C06F09A3C3BD6AD3C43
:104300001003C23CBA7FD73CA355EE3C2F47033D78
:10431000D119103D9DA71D3D83F52B3D71083B3DF7
:1043200053E54A3D0C915B3D72106D3D45687F3D04
:10433000974E893DDC59933D25D89D3D90CBA83DB6
:104340002636B43DD319C03D6B78CC3D9E53D93D44
:10435000FEACE63DF885F43DEA6F013ED7DD083E50
:104360003D8D103E7F7E183EE9B1203EAE27293EAE
:10437000E6DF313E90DA3A3E9117443EB0964D3E2C
:104380009857573ED559613ED99C6B3EF21F763EF9
:104390002A71803E88F1853E8C908B3EA14D913EE6
:1043A0001F28973E4F1F9D3E6B32A33E9C60A93E47
:1043B000F9A8AF3E8E0AB63E5184BC3E2F15C33ECF
:1043C000FFBBC93E8E77D03E9846D73ECB27DE3E18
:1043D000C519E53E1A1BEC3E4E2AF33ED845FA3E7F
:1043E00012B6003FC94D043F3CE9073F8E870B3FA3
:1043F000E0270F3F4FC9123FEF6A163FD50B1A3F18
:1044000011AB1D3FAE47213FB6E0243F3175283F39
:1044100022042C3F8F8C2F3F780D333FE185363FB0
:10442000C9F4393F33593D3F21B2403F95FE433FE8
:10443000953D473F266E4A3F518F4D3F22A0503F4A
:10444000A89F533FF68C563F2167593F452D5C3F4F
:1044500082DE5E3FFD79613FE2FE633F616C663F55
:10446000B4C1683F17FE6A3FD3206D3F33296F3FC9
:104470008F16713F43E8723FB79D743F5936763FC0
:10448000A2B1773F140F793F3B4E7A3FAB6E7B3F33
:1044900006707C3FF3517D3F28147E3F63B67E3F1C
:1044A0006E387F3F1D9A7F3F4EDB7F3FECFB7F3FA7
:1044B000ECFB7F3F4EDB7F3F1D9A7F3F6E387F3F97
:1044C00063B67E3F28147E3FF3517D3F06707C3FEC
:1044D000AB6E7B3F3B4E7A3F140F793FA2B1773FE3
:1044E0005936763FB79D743F43E8723F8F16713F50
:1044F00033296F3FD3206D3F17FE6A3FB4C1683F39
:10450000616C663FE2FE633FFD79613F82DE5E3FA4
:10451000452D5C3F2167593FF68C563FA89F533F7E
:1045200022A0503F518F4D3F266E4A3F953D473F59
:1045300095FE433F21B2403F33593D3FC9F4393FD7
:10454000E185363F780D333F8F8C2F3F22042C3F7F
:104550003175283FB6E0243FAE47213F11AB1D3FE8
:10456000D50B1A3FEF6A163F4FC9123FE0270F3FA6
:104570008E870B3F3CE9073FC94D043F12B6003F11
:10458000D845FA3E4E2AF33E1A1BEC3EC519E53ECD
:10459000CB27DE3E9846D73E8E77D03EFFBBC93E46
:1045A0002F15C33E5184BC3E8E0AB63EF9A8AF3EDD
:1045B0009C60A93E6B32A33E4F1F9D3E1F28973E35
:1045C000A14D913E8C908B3E88F1853E2A71803EB4
:1045D000F21F763ED99C6B3ED559613E9857573EA7
:1045E000B0964D3E9117443E90DA3A3EE6DF313EBA
:1045F000AE27293EE9B1203E7F7E183E3D8D103E1C
:10460000D7DD083EEA6F013EF885F43DFEACE63D9D
:104610009E53D93D6B78CC3DD319C03D2636B43D71
:1046200090CBA83D25D89D3DDC59933D974E893DC3
:1046300045687F3D72106D3D0C915B3D53E54A3DF1
:1046400071083B3D83F52B3D9DA71D3DD119103DC4
:104650002F47033DA355EE3CBA7FD73C1003C23C25
:104660003BD6AD3C06F09A3C7C47893CD9A7713CCF
:10467000EC19533C1FD5363C1CCA1C3C58EA043C80
:104680004B50DE3B78EDB63B8C94933BB35F683B7D
:104690008A57313BA9ED013B0407B43A2EFC653A39
:1046A0005B2B013A31626539A13B6538000000009F
:1046B00000010000C0460008C04E0008B80100001C
:1046C0000000803F0000000043EC7F3FB00AC93C7F
:1046D0000FB17F3F2FFB483D6D4E7F3F05A9963DB3
:1046E0006DC47E3F36BDC83D24137E3F73B2FA3D94
:1046F000AC3A7D3F8340163E283B7C3FA2102F3EC4
:10470000BE147B3FC2C5473E9DC7793F135C603EE8
:10471000F853783FCCCF783E07BA763F938E883EE9
:104720000BFA743F31A0943E4714733FE59AA03EC4
:104730000809713FD47CAC3E9ED86E3F2A44B83EF7
:104740005E836C3F15EFC33EA7096A3FCA7BCF3E2D
:10475000D86B673F80E8DA3E59AA643F7533E63E7E
:1047600098C5613FEA5AF13E05BE5E3F275DFC3EBB
:104770001A945B3F3D9C033F5348583F9BF5083FCD
:1047800031DB543FDA390E3F3D4D513F2A68133F2C
:10479000029F4D3FC07F183F12D1493FD17F1D3F3F
:1047A00003E4453F9967223F70D8413F5636273F83
:1047B000F9AE3D3F4AEB2B3F4268393FBB85303F66
:1047C000F304353FF304353FBB85303F4268393F42
:1047D0004AEB2B3FF9AE3D3F5636273F70D8413F5D
:1047E0009967223F03E4453FD17F1D3F12D1493FE6
:1047F000C07F183F029F4D3F2A68133F3D4D513FF8
:10480000DA390E3F31DB543F9BF5083F5348583FA0
:104810003D9C033F1A945B3F275DFC3E05BE5E3F17
:10482000EA5AF13E98C5613F7533E63E59AA643FA6
:1048300080E8DA3ED86B673FCA7BCF3EA7096A3F64
:1048400015EFC33E5E836C3F2A44B83E9ED86E3F50
:10485000D47CAC3E0809713FE59AA03E4714733FF3
:1048600031A0943E0BFA743F938E883E07BA763F90
:10487000CCCF783EF853783F135C603E9DC7793FBC
:10488000C2C5473EBE147B3FA2102F3E283B7C3F53
:104890008340163EAC3A7D3F73B2FA3D24137E3F0F
:1048A00036BDC83D6DC47E3F05A9963D6D4E7F3F28
:1048B0002FFB483D0FB17F3FB00AC93C43EC7F3F1F
:1048C000000000000000803FB00AC9BC43EC7F3FFD
:1048D0002FFB48BD0FB17F3F05A996BD6D4E7F3FB1
:1048E00036BDC8BD6DC47E3F73B2FABD24137E3F92
:1048F000834016BEAC3A7D3FA2102FBE283B7C3FC2
:10490000C2C547BEBE147B3F135C60BE9DC7793FE6
:10491000CCCF78BEF853783F938E88BE07BA763FE7
:1049200031A094BE0BFA743FE59AA0BE4714733FC2
:10493000D47CACBE0809713F2A44B8BE9ED86E3FF5
:1049400015EFC3BE5E836C3FCA7BCFBEA7096A3F2B
:1049500080E8DABED86B673F7533E6BE59AA643F7C
:10496000EA5AF1BE98C5613F275DFCBE05BE5E3FB9
:104970003D9C03BF1A945B3F9BF508BF5348583FCB
:10498000DA390EBF31DB543F2A6813BF3D4D513F2A
:10499000C07F18BF029F4D3FD17F1DBF12D1493F3D
:1049A000996722BF03E4453F563627BF70D8413F81
:1049B0004AEB2BBFF9AE3D3FBB8530BF4268393F64
:1049C000F30435BFF304353F426839BFBB85303F40
:1049D000F9AE3DBF4AEB2B3F70D841BF5636273F5B
:1049E00003E445BF9967223F12D149BFD17F1D3FE4
:1049F000029F4DBFC07F183F3D4D51BF2A68133FF6
:104A000031DB54BFDA390E3F534858BF9BF5083F9E
:104A10001A945BBF3D9C033F05BE5EBF275DFC3E15
:104A200098C561BFEA5AF13E59AA64BF7533E63EA4
:104A3000D86B67BF80E8DA3EA7096ABFCA7BCF3E62
:104A40005E836CBF15EFC33E9ED86EBF2A44B83E4E
:104A5000080971BFD47CAC3E471473BFE59AA03EF1
:104A60000BFA74BF31A0943E07BA76BF938E883E8E
:104A7000F85378BFCCCF783E9DC779BF135C603EBA
:104A8000BE147BBFC2C5473E283B7CBFA2102F3E51
:104A9000AC3A7DBF8340163E24137EBF73B2FA3D0D
:104AA0006DC47EBF36BDC83D6D4E7FBF05A9963D26
:104AB0000FB17FBF2FFB483D43EC7FBFB00AC93C1D
:104AC000000080BF0000000043EC7FBFB00AC9BCFB
:104AD0000FB17FBF2FFB48BD6D4E7FBF05A996BDAF
:104AE0006DC47EBF36BDC8BD24137EBF73B2FABD90
:104AF000AC3A7DBF834016BE283B7CBFA2102FBEC0
:104B0000BE147BBFC2C547BE9DC779BF135C60BEE4
:104B1000F85378BFCCCF78BE07BA76BF938E88BEE5
:104B20000BFA74BF31A094BE471473BFE59AA0BEC0
:104B3000080971BFD47CACBE9ED86EBF2A44B8BEF3
:104B40005E836CBF15EFC3BEA7096ABFCA7BCFBE29
:104B5000D86B67BF80E8DABE59AA64BF7533E6BE7A
:104B600098C561BFEA5AF1BE05BE5EBF275DFCBEB7
:104B70001A945BBF3D9C03BF534858BF9BF508BFC9
:104B800031DB54BFDA390EBF3D4D51BF2A6813BF28
:104B9000029F4DBFC07F18BF12D149BFD17F1DBF3B
:104BA00003E445BF996722BF70D841BF563627BF7F
:104BB000F9AE3DBF4AEB2BBF426839BFBB8530BF62
:104BC000F30435BFF30435BFBB8530BF426839BF3E
:104BD0004AEB2BBFF9AE3DBF563627BF70D841BF59
:104BE000996722BF03E445BFD17F1DBF12D149BFE2
:104BF000C07F18BF029F4DBF2A6813BF3D4D51BFF4
:104C0000DA390EBF31DB54BF9BF508BF534858BF9C
:104C10003D9C03BF1A945BBF275DFCBE05BE5EBF13
:104C2000EA5AF1BE98C561BF7533E6BE59AA64BFA2
:104C300080E8DABED86B67BFCA7BCFBEA7096ABF60
:104C400015EFC3BE5E836CBF2A44B8BE9ED86EBF4C
:104C5000D47CACBE080971BFE59AA0BE471473BFEF
:104C600031A094BE0BFA74BF938E88BE07BA76BF8C
:104C7000CCCF78BEF85378BF135C60BE9DC779BFB8
:104C8000C2C547BEBE147BBFA2102FBE283B7CBF4F
:104C9000834016BEAC3A7DBF73B2FABD24137EBF0B
:104CA00036BDC8BD6DC47EBF05A996BD6D4E7FBF24
:104CB0002FFB48BD0FB17FBFB00AC9BC43EC7FBF1B
:104CC00000000080000080BFB00AC93C43EC7FBFF9
:104CD0002FFB483D0FB17FBF05A9963D6D4E7FBFAD
:104CE00036BDC83D6DC47EBF73B2FA3D24137EBF8E
:104CF0008340163EAC3A7DBFA2102F3E283B7CBFBE
:104D0000C2C5473EBE147BBF135C603E9DC779BFE2
:104D1000CCCF783EF85378BF938E883E07BA76BFE3
:104D200031A0943E0BFA74BFE59AA03E471473BFBE
:104D3000D47CAC3E080971BF2A44B83E9ED86EBFF1
:104D400015EFC33E5E836CBFCA7BCF3EA7096ABF27
:104D500080E8DA3ED86B67BF7533E63E59AA64BF78
:104D6000EA5AF13E98C561BF275DFC3E05BE5EBFB5
:104D70003D9C033F1A945BBF9BF5083F534858BFC7
:104D8000DA390E3F31DB54BF2A68133F3D4D51BF26
:104D9000C07F183F029F4DBFD17F1D3F12D149BF39
:104DA0009967223F03E445BF5636273F70D841BF7D
:104DB0004AEB2B3FF9AE3DBFBB85303F426839BF60
:104DC000F304353FF30435BF4268393FBB8530BF3C
:104DD000F9AE3D3F4AEB2BBF70D8413F563627BF57
:104DE00003E4453F996722BF12D1493FD17F1DBFE0
:104DF000029F4D3FC07F18BF3D4D513F2A6813BFF2
:104E000031DB543FDA390EBF5348583F9BF508BF9A
:104E10001A945B3F3D9C03BF05BE5E3F275DFCBE11
:104E200098C5613FEA5AF1BE59AA643F7533E6BEA0
:104E3000D86B673F80E8DABEA7096A3FCA7BCFBE5E
:104E40005E836C3F15EFC3BE9ED86E3F2A44B8BE4A
:104E50000809713FD47CACBE4714733FE59AA0BEED
:104E60000BFA743F31A094BE07BA763F938E88BE8A
:104E7000F853783FCCCF78BE9DC7793F135C60BEB6
:104E8000BE147B3FC2C547BE283B7C3FA2102FBE4D
:104E9000AC3A7D3F834016BE24137E3F73B2FABD09
:104EA0006DC47E3F36BDC8BD6D4E7F3F05A996BD22
:104EB0000FB17F3F2FFB48BD43EC7F3FB00AC9BC19
:104EC0000800000210000004180000062000400046
:104ED00028004002300040043800400640008000B6
:104EE0004800800250008004580080066000C00026
:104EF0006800C0027000C0047800C0068000000195
:104F0000880000039000000598000007A000400101
:104F1000A8004003B0004005B8004007C000800171
:104F2000C8008003D0008005D8008007E000C001E1
:104F3000E800C003F000C005F800C007000100024F
:104F40000801080210010804180108062001800267
:104F50002801480230014804380148064001000396
:104F600048018802500188045801880660018003C6
:104F70006801C8027001C8047801C80680010802EF
:104F8000880108039001080598010807A00188021C
:104F9000A8014803B0014805B8014807C00108034B
:104FA000C8018803D0018805D8018807E00188037B
:104FB000E801C803F001C805F801C807080210029B
:104FC00000020004100210041802100620028004DF
:104FD00028025002300250043802500640020005F8
:104FE0004802900250029004580290066002800528
:104FF0006802D0027002D0047802D0068002080451
:10500000880210039002100598021007A00288047D
:10501000A8025003B0025005B8025007C0020805AC
:10502000C8029003D0029005D8029007E0028805DC
:10503000E802D003F002D005F802D0070003000612
:10504000080310061003180418031806200380062E
:10505000280390063003580438035806400300071D
:10506000480310075003980458039806600380070C
:10507000680390077003D8047803D80680030806F5
:10508000880318069003180598031807A0038806DC
:10509000A8039806B0035805B8035807C0030807CB
:1050A000C8031807D0039805D8039807E0038807BA
:1050B000E8039807F003D805F803D807080480042C
:1050C000100420041804200628048005300460041D
:1050D0003804600640040006480488045004A00414
:1050E0005804A00660041006680488057004E004F3
:1050F0007804E006880480069004200598042007C0
:10510000A0040806A8048007B0046005B80460077E
:10511000C0042006C8048806D004A005D804A0074F
:10512000E0041806E8048807F004E005F804E00746
:105130000805200510058005180528062805900596
:105140003005880538056806400500074805200732
:10515000500580075805A8066005080768059805EA
:10516000700588077805E8068805900698052807E1
:10517000A0052806A8059007B0052807B805680708
:10518000C0051007C8059806D0059007D805A807E0
:10519000E0051807E8059807F0059807F805E807FF
:1051A00018063006380670064006000748068007D5
:1051B000500608075806B0066006100768069007F4
:1051C000700618077806F0068806A00698063007CD
:1051D000A806A007B0068807B8067007C006200713
:1051E000C806A007D0062807D806B007E006300793
:1051F000E806A807F0069807F806F00748075007E2
:105200003807980750076007580770076007C007FE
:105210006807D0077807F0077007E007B807F007BE
:10522000A807B007D807F007C807E007E807F007A6
:105230004FBB610567ACDD3F182D4454FB21E93FAE
:105240009BF681D20B73EF3F182D4454FB21F93F9D
:10525000E2652F227F2B7A3C075C143326A6813C23
:10526000BDCBF07A8807703C075C143326A6913CCE
:10527000C4EB98999999C9BF711623FEC671BCBF3A
:105280006D9A74AFF2B0B3BF9AFDDE522DDEADBFA2
:105290002F6C6A2C44B4A2BF0D5555555555D53FBA
:1052A000FF8300922449C23F6E204CC5CD45B73FD5
:1052B000513DD0A0660DB13FEB0D76244B7BA93F4D
:1052C00011DA22E33AAD903F000000000000000038
:1052D000F05200080000002048000000A032000842
:1052E0003853000848000020A81A0000B032000817
:1052F000000000000102030401020304060708097C
:10530000020406080000000000E8030000E80300B3
:10531000000000000000000000000000000000008D
:10532000000001000000000000000000000000007C
:08533000010000000000000074
:04000005080001F1FD
:00000001FF
